{
  "contractName": "PetitionManager",
  "abi": [
    {
      "constant": true,
      "inputs": [
        {
          "name": "",
          "type": "uint256"
        }
      ],
      "name": "petitions",
      "outputs": [
        {
          "name": "name",
          "type": "string"
        },
        {
          "name": "description",
          "type": "string"
        },
        {
          "name": "link",
          "type": "string"
        },
        {
          "name": "ipfs_banner",
          "type": "string"
        },
        {
          "name": "creator",
          "type": "address"
        },
        {
          "name": "totalSigns",
          "type": "uint256"
        },
        {
          "name": "targetSigns",
          "type": "uint256"
        },
        {
          "name": "isOpen",
          "type": "bool"
        }
      ],
      "payable": false,
      "stateMutability": "view",
      "type": "function"
    },
    {
      "constant": false,
      "inputs": [],
      "name": "unpause",
      "outputs": [],
      "payable": false,
      "stateMutability": "nonpayable",
      "type": "function"
    },
    {
      "constant": true,
      "inputs": [
        {
          "name": "account",
          "type": "address"
        }
      ],
      "name": "isPauser",
      "outputs": [
        {
          "name": "",
          "type": "bool"
        }
      ],
      "payable": false,
      "stateMutability": "view",
      "type": "function"
    },
    {
      "constant": true,
      "inputs": [],
      "name": "paused",
      "outputs": [
        {
          "name": "",
          "type": "bool"
        }
      ],
      "payable": false,
      "stateMutability": "view",
      "type": "function"
    },
    {
      "constant": false,
      "inputs": [],
      "name": "renouncePauser",
      "outputs": [],
      "payable": false,
      "stateMutability": "nonpayable",
      "type": "function"
    },
    {
      "constant": false,
      "inputs": [],
      "name": "renounceOwnership",
      "outputs": [],
      "payable": false,
      "stateMutability": "nonpayable",
      "type": "function"
    },
    {
      "constant": false,
      "inputs": [
        {
          "name": "account",
          "type": "address"
        }
      ],
      "name": "addPauser",
      "outputs": [],
      "payable": false,
      "stateMutability": "nonpayable",
      "type": "function"
    },
    {
      "constant": false,
      "inputs": [],
      "name": "pause",
      "outputs": [],
      "payable": false,
      "stateMutability": "nonpayable",
      "type": "function"
    },
    {
      "constant": true,
      "inputs": [],
      "name": "owner",
      "outputs": [
        {
          "name": "",
          "type": "address"
        }
      ],
      "payable": false,
      "stateMutability": "view",
      "type": "function"
    },
    {
      "constant": true,
      "inputs": [],
      "name": "isOwner",
      "outputs": [
        {
          "name": "",
          "type": "bool"
        }
      ],
      "payable": false,
      "stateMutability": "view",
      "type": "function"
    },
    {
      "constant": true,
      "inputs": [
        {
          "name": "",
          "type": "address"
        }
      ],
      "name": "users",
      "outputs": [
        {
          "name": "name",
          "type": "string"
        },
        {
          "name": "ens",
          "type": "string"
        },
        {
          "name": "ipfs_avatar",
          "type": "string"
        }
      ],
      "payable": false,
      "stateMutability": "view",
      "type": "function"
    },
    {
      "constant": true,
      "inputs": [],
      "name": "idGenerator",
      "outputs": [
        {
          "name": "",
          "type": "uint256"
        }
      ],
      "payable": false,
      "stateMutability": "view",
      "type": "function"
    },
    {
      "constant": false,
      "inputs": [
        {
          "name": "newOwner",
          "type": "address"
        }
      ],
      "name": "transferOwnership",
      "outputs": [],
      "payable": false,
      "stateMutability": "nonpayable",
      "type": "function"
    },
    {
      "payable": false,
      "stateMutability": "nonpayable",
      "type": "fallback"
    },
    {
      "anonymous": false,
      "inputs": [
        {
          "indexed": true,
          "name": "userAddress",
          "type": "address"
        },
        {
          "indexed": false,
          "name": "name",
          "type": "string"
        }
      ],
      "name": "LogUserCreated",
      "type": "event"
    },
    {
      "anonymous": false,
      "inputs": [
        {
          "indexed": true,
          "name": "creator",
          "type": "address"
        },
        {
          "indexed": false,
          "name": "petitionId",
          "type": "uint256"
        }
      ],
      "name": "LogPetitionCreated",
      "type": "event"
    },
    {
      "anonymous": false,
      "inputs": [
        {
          "indexed": true,
          "name": "signer",
          "type": "address"
        },
        {
          "indexed": false,
          "name": "petitionId",
          "type": "uint256"
        },
        {
          "indexed": false,
          "name": "totalSigns",
          "type": "uint256"
        }
      ],
      "name": "LogPetitionSigned",
      "type": "event"
    },
    {
      "anonymous": false,
      "inputs": [
        {
          "indexed": false,
          "name": "petitionId",
          "type": "uint256"
        }
      ],
      "name": "LogPetitionClosed",
      "type": "event"
    },
    {
      "anonymous": false,
      "inputs": [
        {
          "indexed": false,
          "name": "account",
          "type": "address"
        }
      ],
      "name": "Paused",
      "type": "event"
    },
    {
      "anonymous": false,
      "inputs": [
        {
          "indexed": false,
          "name": "account",
          "type": "address"
        }
      ],
      "name": "Unpaused",
      "type": "event"
    },
    {
      "anonymous": false,
      "inputs": [
        {
          "indexed": true,
          "name": "account",
          "type": "address"
        }
      ],
      "name": "PauserAdded",
      "type": "event"
    },
    {
      "anonymous": false,
      "inputs": [
        {
          "indexed": true,
          "name": "account",
          "type": "address"
        }
      ],
      "name": "PauserRemoved",
      "type": "event"
    },
    {
      "anonymous": false,
      "inputs": [
        {
          "indexed": true,
          "name": "previousOwner",
          "type": "address"
        },
        {
          "indexed": true,
          "name": "newOwner",
          "type": "address"
        }
      ],
      "name": "OwnershipTransferred",
      "type": "event"
    },
    {
      "constant": false,
      "inputs": [
        {
          "name": "_name",
          "type": "string"
        },
        {
          "name": "_ens",
          "type": "string"
        },
        {
          "name": "_ipfs_avatar",
          "type": "string"
        }
      ],
      "name": "createUser",
      "outputs": [
        {
          "name": "",
          "type": "bool"
        }
      ],
      "payable": false,
      "stateMutability": "nonpayable",
      "type": "function"
    },
    {
      "constant": false,
      "inputs": [
        {
          "name": "_name",
          "type": "string"
        },
        {
          "name": "_description",
          "type": "string"
        },
        {
          "name": "_link",
          "type": "string"
        },
        {
          "name": "_ipfs_banner",
          "type": "string"
        },
        {
          "name": "_targetSigns",
          "type": "uint256"
        }
      ],
      "name": "createPetition",
      "outputs": [
        {
          "name": "",
          "type": "uint256"
        }
      ],
      "payable": false,
      "stateMutability": "nonpayable",
      "type": "function"
    },
    {
      "constant": false,
      "inputs": [
        {
          "name": "petitionId",
          "type": "uint256"
        }
      ],
      "name": "signPetition",
      "outputs": [
        {
          "name": "",
          "type": "bool"
        }
      ],
      "payable": false,
      "stateMutability": "nonpayable",
      "type": "function"
    },
    {
      "constant": false,
      "inputs": [
        {
          "name": "petitionId",
          "type": "uint256"
        }
      ],
      "name": "closePetition",
      "outputs": [
        {
          "name": "",
          "type": "bool"
        }
      ],
      "payable": false,
      "stateMutability": "nonpayable",
      "type": "function"
    },
    {
      "constant": true,
      "inputs": [
        {
          "name": "index",
          "type": "uint256"
        },
        {
          "name": "petitionId",
          "type": "uint256"
        }
      ],
      "name": "getSignaturesFromIndex",
      "outputs": [
        {
          "name": "name",
          "type": "string"
        },
        {
          "name": "ens",
          "type": "string"
        },
        {
          "name": "ipfs_avatar",
          "type": "string"
        },
        {
          "name": "userAddress",
          "type": "address"
        }
      ],
      "payable": false,
      "stateMutability": "view",
      "type": "function"
    }
  ],
  "bytecode": "0x6080604052336000806101000a81548173ffffffffffffffffffffffffffffffffffffffff021916908373ffffffffffffffffffffffffffffffffffffffff1602179055506000809054906101000a900473ffffffffffffffffffffffffffffffffffffffff1673ffffffffffffffffffffffffffffffffffffffff16600073ffffffffffffffffffffffffffffffffffffffff167f8be0079c531659141344cd1fd0a4f28419497f9722a3daafe3b4186f6b6457e060405160405180910390a3620000d133620000f260201b60201c565b6000600260006101000a81548160ff02191690831515021790555062000317565b6200010d8160016200015360201b62002da81790919060201c565b8073ffffffffffffffffffffffffffffffffffffffff167f6719d08c1888103bea251a4ed56406bd0c3e69723c8a1686e017e7bbe159b6f860405160405180910390a250565b6200016582826200023760201b60201c565b15620001d9576040517f08c379a000000000000000000000000000000000000000000000000000000000815260040180806020018281038252601f8152602001807f526f6c65733a206163636f756e7420616c72656164792068617320726f6c650081525060200191505060405180910390fd5b60018260000160008373ffffffffffffffffffffffffffffffffffffffff1673ffffffffffffffffffffffffffffffffffffffff16815260200190815260200160002060006101000a81548160ff0219169083151502179055505050565b60008073ffffffffffffffffffffffffffffffffffffffff168273ffffffffffffffffffffffffffffffffffffffff161415620002c0576040517f08c379a0000000000000000000000000000000000000000000000000000000008152600401808060200182810382526022815260200180620034296022913960400191505060405180910390fd5b8260000160008373ffffffffffffffffffffffffffffffffffffffff1673ffffffffffffffffffffffffffffffffffffffff16815260200190815260200160002060009054906101000a900460ff16905092915050565b61310280620003276000396000f3fe608060405234801561001057600080fd5b50600436106101165760003560e01c806382dc1ec4116100a2578063a87430ba11610071578063a87430ba14610b00578063dcad018014610c95578063e7bd92b914610cdb578063f2fde38b14610cf9578063f345a99714610d3d57610116565b806382dc1ec414610a465780638456cb5914610a8a5780638da5cb5b14610a945780638f32d59b14610ade57610116565b806346fbf68e116100e957806346fbf68e146107b357806359ae069b1461080f5780635c975abb14610a105780636ef8d66d14610a32578063715018a614610a3c57610116565b8063143acadf146101185780633ad50ded146102d45780633edd81d51461050b5780633f4ba83a146107a9575b005b61014e6004803603604081101561012e57600080fd5b810190808035906020019092919080359060200190929190505050610d83565b604051808060200180602001806020018573ffffffffffffffffffffffffffffffffffffffff1673ffffffffffffffffffffffffffffffffffffffff168152602001848103845288818151815260200191508051906020019080838360005b838110156101c85780820151818401526020810190506101ad565b50505050905090810190601f1680156101f55780820380516001836020036101000a031916815260200191505b50848103835287818151815260200191508051906020019080838360005b8381101561022e578082015181840152602081019050610213565b50505050905090810190601f16801561025b5780820380516001836020036101000a031916815260200191505b50848103825286818151815260200191508051906020019080838360005b83811015610294578082015181840152602081019050610279565b50505050905090810190601f1680156102c15780820380516001836020036101000a031916815260200191505b5097505050505050505060405180910390f35b610300600480360360208110156102ea57600080fd5b81019080803590602001909291905050506112a4565b60405180806020018060200180602001806020018973ffffffffffffffffffffffffffffffffffffffff1673ffffffffffffffffffffffffffffffffffffffff1681526020018881526020018781526020018615151515815260200185810385528d818151815260200191508051906020019080838360005b83811015610394578082015181840152602081019050610379565b50505050905090810190601f1680156103c15780820380516001836020036101000a031916815260200191505b5085810384528c818151815260200191508051906020019080838360005b838110156103fa5780820151818401526020810190506103df565b50505050905090810190601f1680156104275780820380516001836020036101000a031916815260200191505b5085810383528b818151815260200191508051906020019080838360005b83811015610460578082015181840152602081019050610445565b50505050905090810190601f16801561048d5780820380516001836020036101000a031916815260200191505b5085810382528a818151815260200191508051906020019080838360005b838110156104c65780820151818401526020810190506104ab565b50505050905090810190601f1680156104f35780820380516001836020036101000a031916815260200191505b509c5050505050505050505050505060405180910390f35b610793600480360360a081101561052157600080fd5b810190808035906020019064010000000081111561053e57600080fd5b82018360208201111561055057600080fd5b8035906020019184600183028401116401000000008311171561057257600080fd5b91908080601f016020809104026020016040519081016040528093929190818152602001838380828437600081840152601f19601f820116905080830192505050505050509192919290803590602001906401000000008111156105d557600080fd5b8201836020820111156105e757600080fd5b8035906020019184600183028401116401000000008311171561060957600080fd5b91908080601f016020809104026020016040519081016040528093929190818152602001838380828437600081840152601f19601f8201169050808301925050505050505091929192908035906020019064010000000081111561066c57600080fd5b82018360208201111561067e57600080fd5b803590602001918460018302840111640100000000831117156106a057600080fd5b91908080601f016020809104026020016040519081016040528093929190818152602001838380828437600081840152601f19601f8201169050808301925050505050505091929192908035906020019064010000000081111561070357600080fd5b82018360208201111561071557600080fd5b8035906020019184600183028401116401000000008311171561073757600080fd5b91908080601f016020809104026020016040519081016040528093929190818152602001838380828437600081840152601f19601f82011690508083019250505050505050919291929080359060200190929190505050611579565b6040518082815260200191505060405180910390f35b6107b16118f2565b005b6107f5600480360360208110156107c957600080fd5b81019080803573ffffffffffffffffffffffffffffffffffffffff169060200190929190505050611a52565b604051808215151515815260200191505060405180910390f35b6109f66004803603606081101561082557600080fd5b810190808035906020019064010000000081111561084257600080fd5b82018360208201111561085457600080fd5b8035906020019184600183028401116401000000008311171561087657600080fd5b91908080601f016020809104026020016040519081016040528093929190818152602001838380828437600081840152601f19601f820116905080830192505050505050509192919290803590602001906401000000008111156108d957600080fd5b8201836020820111156108eb57600080fd5b8035906020019184600183028401116401000000008311171561090d57600080fd5b91908080601f016020809104026020016040519081016040528093929190818152602001838380828437600081840152601f19601f8201169050808301925050505050505091929192908035906020019064010000000081111561097057600080fd5b82018360208201111561098257600080fd5b803590602001918460018302840111640100000000831117156109a457600080fd5b91908080601f016020809104026020016040519081016040528093929190818152602001838380828437600081840152601f19601f820116905080830192505050505050509192919290505050611a6f565b604051808215151515815260200191505060405180910390f35b610a18611da8565b604051808215151515815260200191505060405180910390f35b610a3a611dbf565b005b610a44611dca565b005b610a8860048036036020811015610a5c57600080fd5b81019080803573ffffffffffffffffffffffffffffffffffffffff169060200190929190505050611f03565b005b610a92611f6d565b005b610a9c6120ce565b604051808273ffffffffffffffffffffffffffffffffffffffff1673ffffffffffffffffffffffffffffffffffffffff16815260200191505060405180910390f35b610ae66120f7565b604051808215151515815260200191505060405180910390f35b610b4260048036036020811015610b1657600080fd5b81019080803573ffffffffffffffffffffffffffffffffffffffff16906020019092919050505061214e565b60405180806020018060200180602001848103845287818151815260200191508051906020019080838360005b83811015610b8a578082015181840152602081019050610b6f565b50505050905090810190601f168015610bb75780820380516001836020036101000a031916815260200191505b50848103835286818151815260200191508051906020019080838360005b83811015610bf0578082015181840152602081019050610bd5565b50505050905090810190601f168015610c1d5780820380516001836020036101000a031916815260200191505b50848103825285818151815260200191508051906020019080838360005b83811015610c56578082015181840152602081019050610c3b565b50505050905090810190601f168015610c835780820380516001836020036101000a031916815260200191505b50965050505050505060405180910390f35b610cc160048036036020811015610cab57600080fd5b8101908080359060200190929190505050612340565b604051808215151515815260200191505060405180910390f35b610ce36127d5565b6040518082815260200191505060405180910390f35b610d3b60048036036020811015610d0f57600080fd5b81019080803573ffffffffffffffffffffffffffffffffffffffff1690602001909291905050506127db565b005b610d6960048036036020811015610d5357600080fd5b8101908080359060200190929190505050612861565b604051808215151515815260200191505060405180910390f35b6060806060600084600073ffffffffffffffffffffffffffffffffffffffff166004600083815260200190815260200160002060040160009054906101000a900473ffffffffffffffffffffffffffffffffffffffff1673ffffffffffffffffffffffffffffffffffffffff161415610e47576040517f08c379a0000000000000000000000000000000000000000000000000000000008152600401808060200182810382526022815260200180612fca6022913960400191505060405180910390fd5b6000600560003373ffffffffffffffffffffffffffffffffffffffff1673ffffffffffffffffffffffffffffffffffffffff16815260200190815260200160002060000180546001816001161561010002031660029004905011610f13576040517f08c379a000000000000000000000000000000000000000000000000000000000815260040180806020018281038252601b8152602001807f596f75206e65656420746f2072656769737465722066697273742e000000000081525060200191505060405180910390fd5b6004600087815260200190815260200160002060050154871115610f9f576040517f08c379a000000000000000000000000000000000000000000000000000000000815260040180806020018281038252601e8152602001807f52657175657374656420696e646578206973206f75746f66626f756e6420000081525060200191505060405180910390fd5b610fa7612e83565b600060046000898152602001908152602001600020905060008160070160008b815260200190815260200160002060009054906101000a900473ffffffffffffffffffffffffffffffffffffffff1690508160080160008273ffffffffffffffffffffffffffffffffffffffff1673ffffffffffffffffffffffffffffffffffffffff16815260200190815260200160002060009054906101000a900460ff161561127f57600560008273ffffffffffffffffffffffffffffffffffffffff1673ffffffffffffffffffffffffffffffffffffffff168152602001908152602001600020604051806060016040529081600082018054600181600116156101000203166002900480601f01602080910402602001604051908101604052809291908181526020018280546001816001161561010002031660029004801561112f5780601f106111045761010080835404028352916020019161112f565b820191906000526020600020905b81548152906001019060200180831161111257829003601f168201915b50505050508152602001600182018054600181600116156101000203166002900480601f0160208091040260200160405190810160405280929190818152602001828054600181600116156101000203166002900480156111d15780601f106111a6576101008083540402835291602001916111d1565b820191906000526020600020905b8154815290600101906020018083116111b457829003601f168201915b50505050508152602001600282018054600181600116156101000203166002900480601f0160208091040260200160405190810160405280929190818152602001828054600181600116156101000203166002900480156112735780601f1061124857610100808354040283529160200191611273565b820191906000526020600020905b81548152906001019060200180831161125657829003601f168201915b50505050508152505092505b8260000151975082602001519650826040015195508094505050505092959194509250565b6004602052806000526040600020600091509050806000018054600181600116156101000203166002900480601f0160208091040260200160405190810160405280929190818152602001828054600181600116156101000203166002900480156113505780601f1061132557610100808354040283529160200191611350565b820191906000526020600020905b81548152906001019060200180831161133357829003601f168201915b505050505090806001018054600181600116156101000203166002900480601f0160208091040260200160405190810160405280929190818152602001828054600181600116156101000203166002900480156113ee5780601f106113c3576101008083540402835291602001916113ee565b820191906000526020600020905b8154815290600101906020018083116113d157829003601f168201915b505050505090806002018054600181600116156101000203166002900480601f01602080910402602001604051908101604052809291908181526020018280546001816001161561010002031660029004801561148c5780601f106114615761010080835404028352916020019161148c565b820191906000526020600020905b81548152906001019060200180831161146f57829003601f168201915b505050505090806003018054600181600116156101000203166002900480601f01602080910402602001604051908101604052809291908181526020018280546001816001161561010002031660029004801561152a5780601f106114ff5761010080835404028352916020019161152a565b820191906000526020600020905b81548152906001019060200180831161150d57829003601f168201915b5050505050908060040160009054906101000a900473ffffffffffffffffffffffffffffffffffffffff16908060050154908060060154908060090160009054906101000a900460ff16905088565b600080600560003373ffffffffffffffffffffffffffffffffffffffff1673ffffffffffffffffffffffffffffffffffffffff16815260200190815260200160002060000180546001816001161561010002031660029004905011611646576040517f08c379a000000000000000000000000000000000000000000000000000000000815260040180806020018281038252601b8152602001807f596f75206e65656420746f2072656769737465722066697273742e000000000081525060200191505060405180910390fd5b600260009054906101000a900460ff16156116c9576040517f08c379a00000000000000000000000000000000000000000000000000000000081526004018080602001828103825260108152602001807f5061757361626c653a207061757365640000000000000000000000000000000081525060200191505060405180910390fd5b6000865111611740576040517f08c379a00000000000000000000000000000000000000000000000000000000081526004018080602001828103825260138152602001807f4e616d652063616e6e6f74206265206e756c6c0000000000000000000000000081525060200191505060405180910390fd5b60008211611799576040517f08c379a00000000000000000000000000000000000000000000000000000000081526004018080602001828103825260268152602001806130b16026913960400191505060405180910390fd5b600060035490506000600460008381526020019081526020016000209050878160000190805190602001906117cf929190612ea4565b50868160010190805190602001906117e8929190612ea4565b5085816002019080519060200190611801929190612ea4565b508481600301908051906020019061181a929190612ea4565b50338160040160006101000a81548173ffffffffffffffffffffffffffffffffffffffff021916908373ffffffffffffffffffffffffffffffffffffffff16021790555083816006018190555060018160090160006101000a81548160ff0219169083151502179055506003600081548092919060010191905055503373ffffffffffffffffffffffffffffffffffffffff167f7a84b5e79038d82c11ccbbba3ecb756204a826bb384fa378acd97cca53427d07836040518082815260200191505060405180910390a2819250505095945050505050565b6118fb33611a52565b611950576040517f08c379a0000000000000000000000000000000000000000000000000000000008152600401808060200182810382526030815260200180612fec6030913960400191505060405180910390fd5b600260009054906101000a900460ff166119d2576040517f08c379a00000000000000000000000000000000000000000000000000000000081526004018080602001828103825260148152602001807f5061757361626c653a206e6f742070617573656400000000000000000000000081525060200191505060405180910390fd5b6000600260006101000a81548160ff0219169083151502179055507f5db9ee0a495bf2e6ff9c91a7834c1ba4fdd244a5e8aa4e537bd38aeae4b073aa33604051808273ffffffffffffffffffffffffffffffffffffffff1673ffffffffffffffffffffffffffffffffffffffff16815260200191505060405180910390a1565b6000611a68826001612a1590919063ffffffff16565b9050919050565b600080600560003373ffffffffffffffffffffffffffffffffffffffff1673ffffffffffffffffffffffffffffffffffffffff16815260200190815260200160002060000180546001816001161561010002031660029004905014611b3c576040517f08c379a000000000000000000000000000000000000000000000000000000000815260040180806020018281038252601a8152602001807f596f752061726520616c7265616479207265676973746572656400000000000081525060200191505060405180910390fd5b600260009054906101000a900460ff1615611bbf576040517f08c379a00000000000000000000000000000000000000000000000000000000081526004018080602001828103825260108152602001807f5061757361626c653a207061757365640000000000000000000000000000000081525060200191505060405180910390fd5b6000845111611c36576040517f08c379a00000000000000000000000000000000000000000000000000000000081526004018080602001828103825260138152602001807f4e616d652063616e6e6f74206265206e756c6c0000000000000000000000000081525060200191505060405180910390fd5b604051806060016040528085815260200184815260200183815250600560003373ffffffffffffffffffffffffffffffffffffffff1673ffffffffffffffffffffffffffffffffffffffff1681526020019081526020016000206000820151816000019080519060200190611cac929190612f24565b506020820151816001019080519060200190611cc9929190612f24565b506040820151816002019080519060200190611ce6929190612f24565b509050503373ffffffffffffffffffffffffffffffffffffffff167f85f024f9746b4d2a8a7c54f32f1eb2a1e3b223a9d92308b3186eb8a9ee955f9e856040518080602001828103825283818151815260200191508051906020019080838360005b83811015611d63578082015181840152602081019050611d48565b50505050905090810190601f168015611d905780820380516001836020036101000a031916815260200191505b509250505060405180910390a2600190509392505050565b6000600260009054906101000a900460ff16905090565b611dc833612af3565b565b611dd26120f7565b611e44576040517f08c379a00000000000000000000000000000000000000000000000000000000081526004018080602001828103825260208152602001807f4f776e61626c653a2063616c6c6572206973206e6f7420746865206f776e657281525060200191505060405180910390fd5b600073ffffffffffffffffffffffffffffffffffffffff166000809054906101000a900473ffffffffffffffffffffffffffffffffffffffff1673ffffffffffffffffffffffffffffffffffffffff167f8be0079c531659141344cd1fd0a4f28419497f9722a3daafe3b4186f6b6457e060405160405180910390a360008060006101000a81548173ffffffffffffffffffffffffffffffffffffffff021916908373ffffffffffffffffffffffffffffffffffffffff160217905550565b611f0c33611a52565b611f61576040517f08c379a0000000000000000000000000000000000000000000000000000000008152600401808060200182810382526030815260200180612fec6030913960400191505060405180910390fd5b611f6a81612b4d565b50565b611f7633611a52565b611fcb576040517f08c379a0000000000000000000000000000000000000000000000000000000008152600401808060200182810382526030815260200180612fec6030913960400191505060405180910390fd5b600260009054906101000a900460ff161561204e576040517f08c379a00000000000000000000000000000000000000000000000000000000081526004018080602001828103825260108152602001807f5061757361626c653a207061757365640000000000000000000000000000000081525060200191505060405180910390fd5b6001600260006101000a81548160ff0219169083151502179055507f62e78cea01bee320cd4e420270b5ea74000d11b0c9f74754ebdbfc544b05a25833604051808273ffffffffffffffffffffffffffffffffffffffff1673ffffffffffffffffffffffffffffffffffffffff16815260200191505060405180910390a1565b60008060009054906101000a900473ffffffffffffffffffffffffffffffffffffffff16905090565b60008060009054906101000a900473ffffffffffffffffffffffffffffffffffffffff1673ffffffffffffffffffffffffffffffffffffffff163373ffffffffffffffffffffffffffffffffffffffff1614905090565b6005602052806000526040600020600091509050806000018054600181600116156101000203166002900480601f0160208091040260200160405190810160405280929190818152602001828054600181600116156101000203166002900480156121fa5780601f106121cf576101008083540402835291602001916121fa565b820191906000526020600020905b8154815290600101906020018083116121dd57829003601f168201915b505050505090806001018054600181600116156101000203166002900480601f0160208091040260200160405190810160405280929190818152602001828054600181600116156101000203166002900480156122985780601f1061226d57610100808354040283529160200191612298565b820191906000526020600020905b81548152906001019060200180831161227b57829003601f168201915b505050505090806002018054600181600116156101000203166002900480601f0160208091040260200160405190810160405280929190818152602001828054600181600116156101000203166002900480156123365780601f1061230b57610100808354040283529160200191612336565b820191906000526020600020905b81548152906001019060200180831161231957829003601f168201915b5050505050905083565b600080600560003373ffffffffffffffffffffffffffffffffffffffff1673ffffffffffffffffffffffffffffffffffffffff1681526020019081526020016000206000018054600181600116156101000203166002900490501161240d576040517f08c379a000000000000000000000000000000000000000000000000000000000815260040180806020018281038252601b8152602001807f596f75206e65656420746f2072656769737465722066697273742e000000000081525060200191505060405180910390fd5b600260009054906101000a900460ff1615612490576040517f08c379a00000000000000000000000000000000000000000000000000000000081526004018080602001828103825260108152602001807f5061757361626c653a207061757365640000000000000000000000000000000081525060200191505060405180910390fd5b81600073ffffffffffffffffffffffffffffffffffffffff166004600083815260200190815260200160002060040160009054906101000a900473ffffffffffffffffffffffffffffffffffffffff1673ffffffffffffffffffffffffffffffffffffffff16141561254d576040517f08c379a0000000000000000000000000000000000000000000000000000000008152600401808060200182810382526022815260200180612fca6022913960400191505060405180910390fd5b60006004600085815260200190815260200160002090508060080160003373ffffffffffffffffffffffffffffffffffffffff1673ffffffffffffffffffffffffffffffffffffffff16815260200190815260200160002060009054906101000a900460ff1615612626576040517f08c379a00000000000000000000000000000000000000000000000000000000081526004018080602001828103825260208152602001807f596f7520616c7265616479207369676e656420746865207065746974696f6e2181525060200191505060405180910390fd5b8060090160009054906101000a900460ff166126aa576040517f08c379a00000000000000000000000000000000000000000000000000000000081526004018080602001828103825260188152602001807f546865207065746974696f6e2077617320636c6f7365642e000000000000000081525060200191505060405180910390fd5b338160070160008360050154815260200190815260200160002060006101000a81548173ffffffffffffffffffffffffffffffffffffffff021916908373ffffffffffffffffffffffffffffffffffffffff16021790555060018160080160003373ffffffffffffffffffffffffffffffffffffffff1673ffffffffffffffffffffffffffffffffffffffff16815260200190815260200160002060006101000a81548160ff02191690831515021790555080600501600081548092919060010191905055503373ffffffffffffffffffffffffffffffffffffffff167feb0577862f68791e5e65dabf4d79a642e4589666a011134b17d074d1ef18cd23858360050154604051808381526020018281526020019250505060405180910390a2600192505050919050565b60035481565b6127e36120f7565b612855576040517f08c379a00000000000000000000000000000000000000000000000000000000081526004018080602001828103825260208152602001807f4f776e61626c653a2063616c6c6572206973206e6f7420746865206f776e657281525060200191505060405180910390fd5b61285e81612ba7565b50565b600081600073ffffffffffffffffffffffffffffffffffffffff166004600083815260200190815260200160002060040160009054906101000a900473ffffffffffffffffffffffffffffffffffffffff1673ffffffffffffffffffffffffffffffffffffffff161415612920576040517f08c379a0000000000000000000000000000000000000000000000000000000008152600401808060200182810382526022815260200180612fca6022913960400191505060405180910390fd5b823373ffffffffffffffffffffffffffffffffffffffff166004600083815260200190815260200160002060040160009054906101000a900473ffffffffffffffffffffffffffffffffffffffff1673ffffffffffffffffffffffffffffffffffffffff16146129db576040517f08c379a000000000000000000000000000000000000000000000000000000000815260040180806020018281038252602c815260200180613085602c913960400191505060405180910390fd5b60006004600086815260200190815260200160002060090160006101000a81548160ff021916908315150217905550600192505050919050565b60008073ffffffffffffffffffffffffffffffffffffffff168273ffffffffffffffffffffffffffffffffffffffff161415612a9c576040517f08c379a00000000000000000000000000000000000000000000000000000000081526004018080602001828103825260228152602001806130636022913960400191505060405180910390fd5b8260000160008373ffffffffffffffffffffffffffffffffffffffff1673ffffffffffffffffffffffffffffffffffffffff16815260200190815260200160002060009054906101000a900460ff16905092915050565b612b07816001612ceb90919063ffffffff16565b8073ffffffffffffffffffffffffffffffffffffffff167fcd265ebaf09df2871cc7bd4133404a235ba12eff2041bb89d9c714a2621c7c7e60405160405180910390a250565b612b61816001612da890919063ffffffff16565b8073ffffffffffffffffffffffffffffffffffffffff167f6719d08c1888103bea251a4ed56406bd0c3e69723c8a1686e017e7bbe159b6f860405160405180910390a250565b600073ffffffffffffffffffffffffffffffffffffffff168173ffffffffffffffffffffffffffffffffffffffff161415612c2d576040517f08c379a000000000000000000000000000000000000000000000000000000000815260040180806020018281038252602681526020018061301c6026913960400191505060405180910390fd5b8073ffffffffffffffffffffffffffffffffffffffff166000809054906101000a900473ffffffffffffffffffffffffffffffffffffffff1673ffffffffffffffffffffffffffffffffffffffff167f8be0079c531659141344cd1fd0a4f28419497f9722a3daafe3b4186f6b6457e060405160405180910390a3806000806101000a81548173ffffffffffffffffffffffffffffffffffffffff021916908373ffffffffffffffffffffffffffffffffffffffff16021790555050565b612cf58282612a15565b612d4a576040517f08c379a00000000000000000000000000000000000000000000000000000000081526004018080602001828103825260218152602001806130426021913960400191505060405180910390fd5b60008260000160008373ffffffffffffffffffffffffffffffffffffffff1673ffffffffffffffffffffffffffffffffffffffff16815260200190815260200160002060006101000a81548160ff0219169083151502179055505050565b612db28282612a15565b15612e25576040517f08c379a000000000000000000000000000000000000000000000000000000000815260040180806020018281038252601f8152602001807f526f6c65733a206163636f756e7420616c72656164792068617320726f6c650081525060200191505060405180910390fd5b60018260000160008373ffffffffffffffffffffffffffffffffffffffff1673ffffffffffffffffffffffffffffffffffffffff16815260200190815260200160002060006101000a81548160ff0219169083151502179055505050565b60405180606001604052806060815260200160608152602001606081525090565b828054600181600116156101000203166002900490600052602060002090601f016020900481019282601f10612ee557805160ff1916838001178555612f13565b82800160010185558215612f13579182015b82811115612f12578251825591602001919060010190612ef7565b5b509050612f209190612fa4565b5090565b828054600181600116156101000203166002900490600052602060002090601f016020900481019282601f10612f6557805160ff1916838001178555612f93565b82800160010185558215612f93579182015b82811115612f92578251825591602001919060010190612f77565b5b509050612fa09190612fa4565b5090565b612fc691905b80821115612fc2576000816000905550600101612faa565b5090565b9056fe526571756573746564207065746974696f6e20646f6573206e6f7420657869737421506175736572526f6c653a2063616c6c657220646f6573206e6f742068617665207468652050617573657220726f6c654f776e61626c653a206e6577206f776e657220697320746865207a65726f2061646472657373526f6c65733a206163636f756e7420646f6573206e6f74206861766520726f6c65526f6c65733a206163636f756e7420697320746865207a65726f20616464726573734f6e6c79207468652063726561746f72206f6620746865207065746974696f6e2063616e20646f207468697354686520746172676574207369676e617475726573206d75737420626520706f736974697665a165627a7a7230582042bf4e39dfd6e9d10e147c0e15451771713b041f48ffa64703aacea749f604510029526f6c65733a206163636f756e7420697320746865207a65726f2061646472657373",
  "source": "pragma solidity ^0.5.0;\n\nimport 'openzeppelin-solidity/contracts/ownership/Ownable.sol';\nimport 'openzeppelin-solidity/contracts/lifecycle/Pausable.sol';\n\n/// @title PetitionManager\n/// @notice Decentralized petition system\n/// @author Francesco Moca 2019\ncontract PetitionManager is Ownable, Pausable {\n\n    /*\n        Create a variable to keep track of the event ID numbers.\n    */\n    uint public idGenerator;\n\n    /*\n        Struct containing details about a petitions and its signers.\n    */\n    struct Petition {\n        string name;\n        string description;\n        string link;\n        string ipfs_banner;\n        address creator;\n        uint totalSigns;\n        uint targetSigns;\n        mapping(uint => address) signersId;\n        mapping(address => bool) signers;\n        bool isOpen;\n    }\n\n    struct User {\n        string name;\n        string ens;\n        string ipfs_avatar;\n    }\n\n    /// @notice each petition has one unique uint as key\n    mapping (uint => Petition) public petitions;\n    /// @notice unregistered users can be recognized by empty name\n    mapping (address => User) public users;\n\n    event LogUserCreated(address indexed userAddress, string name);\n    event LogPetitionCreated(address indexed creator, uint petitionId);\n    event LogPetitionSigned(address indexed signer, uint petitionId, uint totalSigns);\n    event LogPetitionClosed(uint petitionId);\n\n    /// @dev check if the user never registered\n    modifier notUser(){\n        //Best way to check if a string is uninitialized\n        require(bytes(users[msg.sender].name).length == 0, \"You are already registered\");\n        _;\n    }\n\n    /// @dev check if an user is registered by his name. The name is the only obligatory field of an user (for now)\n    modifier isUser(){\n        //Best way to check if a string is uninitialized\n        require(bytes(users[msg.sender].name).length > 0, \"You need to register first.\");\n        _;\n    }\n\n    /// @dev check if the sender created the petition he want to act on\n    modifier isCreator(uint _petitionId){\n        require(petitions[_petitionId].creator == msg.sender, \"Only the creator of the petition can do this\");\n        _;\n    }\n\n    /// @dev every existing petition has an associated creator address\n    modifier petitionExists(uint _petitionId){\n        require(petitions[_petitionId].creator != address(0), \"Requested petition does not exist!\");\n        _;\n    }\n\n    /// @notice Create an user giving a name and eventually an ens and an ipfs hash rapresenting an image\n    /// @dev Cannot be run if already an user or if the contract is paused!\n    /// @param _name must not be null\n    /// @param _ens (crosschecking the validity of an ens in solidity is expensive, it's easier doing it client side)\n    /// @param _ipfs_avatar if the ipfs hash given is empty or not valid, a placeholder is shown clientside\n    /// @return boolean for success\n    function createUser(string memory _name, string memory _ens, string memory _ipfs_avatar)\n    public notUser whenNotPaused returns(bool) {\n        require(bytes(_name).length > 0, \"Name cannot be null\");\n        users[msg.sender] = User({name: _name, ens: _ens, ipfs_avatar:_ipfs_avatar});\n        emit LogUserCreated(msg.sender,_name);\n        return true;\n    }\n\n    /// @notice Create a Petition\n    /// @dev Cannot be run if not an user or if the contract is paused!\n    /// @param _name  Name is not unique cannot be used as key\n    /// @param _description A longer description means a more expensive petition deploy, in future it should be limited.\n    /// @param _link Useful resource for additional informations\n    /// @param _ipfs_banner if the ipfs hash given is empty or not valid, a placeholder is shown clientside\n    /// @param _targetSigns for now this value is just cosmetic, it could be used to close a petition automatically, or for other triggers\n    /// @return petition unique id (uint)\n    function createPetition(string memory _name, string memory _description, string memory _link,\n     string memory _ipfs_banner, uint  _targetSigns )\n    public isUser whenNotPaused returns(uint)\n    {\n        require(bytes(_name).length > 0, \"Name cannot be null\");\n        require(_targetSigns > 0, \"The target signatures must be positive\");\n\n        uint petitionId = idGenerator;\n        Petition storage p = petitions[petitionId];\n        p.name = _name;\n        p.description = _description;\n        p.link = _link;\n        p.ipfs_banner = _ipfs_banner;\n        p.creator = msg.sender;\n        p.targetSigns = _targetSigns;\n        p.isOpen = true;\n        idGenerator++;\n        emit LogPetitionCreated(msg.sender,petitionId);\n        return petitionId;\n    }\n\n    /// @notice Sign a petition, registering your data ad increasing the sign count\n    /// @dev Cannot be run if not an user, if the contract is paused, if you already signed, if the petition doesn't exist or is closed!\n    /// @param petitionId ...\n    /// @return boolean for success\n    function signPetition(uint petitionId)\n    public isUser whenNotPaused petitionExists(petitionId) returns(bool)\n    {\n        Petition storage p = petitions[petitionId];\n        require(!p.signers[msg.sender], \"You already signed the petition!\");\n        require(p.isOpen, \"The petition was closed.\");\n        p.signersId[p.totalSigns] = msg.sender;\n        p.signers[msg.sender] = true;\n        p.totalSigns++;\n        //Do something if targetSigns are reached?!\n        emit LogPetitionSigned(msg.sender,petitionId,p.totalSigns);\n        return true;\n    }\n\n    /// @notice Close the petition not allowing more users to sign it\n    /// @dev The petition should ofcourse exist and only the creator can call this method.\n    /// @param petitionId ...\n    /// @return boolean for success\n    function closePetition(uint petitionId)\n    public petitionExists(petitionId) isCreator(petitionId) returns(bool)\n    {\n        petitions[petitionId].isOpen = false;\n        return true;\n    }\n\n    /// @notice Obtain the information about a single signature.\n    /// @dev The conditional if is present to allow in the future an user to withdrawn his signature. (Not implemented right now)\n    /// @param index The index parameters should be smaller than the total signatures of the petition!\n    /// @param petitionId the petition existance is checked with the corresponding modifier\n    /// @return name, ens, ipfs_avatar (User struct decomposed for solidity limitations) and signing address\n    function getSignaturesFromIndex(uint index, uint petitionId)\n    public view petitionExists(petitionId) isUser returns(string memory name, string memory ens, string memory ipfs_avatar, address  userAddress){\n        require(index<=petitions[petitionId].totalSigns,\"Requested index is outofbound \");\n        User memory sign;\n        Petition storage p = petitions[petitionId];\n        address signer = p.signersId[index];\n        if(p.signers[signer]){\n            sign = users[signer];\n        }\n        name = sign.name;\n        ens = sign.ens;\n        ipfs_avatar = sign.ipfs_avatar;\n        userAddress = signer;\n    }\n\n    /// @notice fallback function, not payable (there is now value exchanged in the contract ATM)\n    function() external { }\n\n}\n",
  "sourcePath": "/home/franz/consensys/ConsensysBootcamp-FinalProject/contracts/PetitionManager.sol",
  "compiler": {
    "name": "solc",
    "version": "0.5.8+commit.23d335f2.Emscripten.clang"
  },
  "schemaVersion": "3.0.10",
  "updatedAt": "2019-08-01T09:54:16.629Z",
  "devdoc": {
    "author": "Francesco Moca 2019",
    "methods": {
      "closePetition(uint256)": {
        "details": "The petition should ofcourse exist and only the creator can call this method.",
        "params": {
          "petitionId": "..."
        },
        "return": "boolean for success"
      },
      "createPetition(string,string,string,string,uint256)": {
        "details": "Cannot be run if not an user or if the contract is paused!",
        "params": {
          "_description": "A longer description means a more expensive petition deploy, in future it should be limited.",
          "_ipfs_banner": "if the ipfs hash given is empty or not valid, a placeholder is shown clientside",
          "_link": "Useful resource for additional informations",
          "_name": "Name is not unique cannot be used as key",
          "_targetSigns": "for now this value is just cosmetic, it could be used to close a petition automatically, or for other triggers"
        },
        "return": "petition unique id (uint)"
      },
      "createUser(string,string,string)": {
        "details": "Cannot be run if already an user or if the contract is paused!",
        "params": {
          "_ens": "(crosschecking the validity of an ens in solidity is expensive, it's easier doing it client side)",
          "_ipfs_avatar": "if the ipfs hash given is empty or not valid, a placeholder is shown clientside",
          "_name": "must not be null"
        },
        "return": "boolean for success"
      },
      "getSignaturesFromIndex(uint256,uint256)": {
        "details": "The conditional if is present to allow in the future an user to withdrawn his signature. (Not implemented right now)",
        "params": {
          "index": "The index parameters should be smaller than the total signatures of the petition!",
          "petitionId": "the petition existance is checked with the corresponding modifier"
        },
        "return": "name, ens, ipfs_avatar (User struct decomposed for solidity limitations) and signing address"
      },
      "isOwner()": {
        "details": "Returns true if the caller is the current owner."
      },
      "owner()": {
        "details": "Returns the address of the current owner."
      },
      "pause()": {
        "details": "Called by a pauser to pause, triggers stopped state."
      },
      "paused()": {
        "details": "Returns true if the contract is paused, and false otherwise."
      },
      "renounceOwnership()": {
        "details": "Leaves the contract without owner. It will not be possible to call `onlyOwner` functions anymore. Can only be called by the current owner.     * > Note: Renouncing ownership will leave the contract without an owner, thereby removing any functionality that is only available to the owner."
      },
      "signPetition(uint256)": {
        "details": "Cannot be run if not an user, if the contract is paused, if you already signed, if the petition doesn't exist or is closed!",
        "params": {
          "petitionId": "..."
        },
        "return": "boolean for success"
      },
      "transferOwnership(address)": {
        "details": "Transfers ownership of the contract to a new account (`newOwner`). Can only be called by the current owner."
      },
      "unpause()": {
        "details": "Called by a pauser to unpause, returns to normal state."
      }
    },
    "title": "PetitionManager"
  },
  "userdoc": {
    "methods": {
      "closePetition(uint256)": {
        "notice": "Close the petition not allowing more users to sign it"
      },
      "createPetition(string,string,string,string,uint256)": {
        "notice": "Create a Petition"
      },
      "createUser(string,string,string)": {
        "notice": "Create an user giving a name and eventually an ens and an ipfs hash rapresenting an image"
      },
      "getSignaturesFromIndex(uint256,uint256)": {
        "notice": "Obtain the information about a single signature."
      },
      "signPetition(uint256)": {
        "notice": "Sign a petition, registering your data ad increasing the sign count"
      }
    },
    "notice": "Decentralized petition system"
  }
}