{
  "contractName": "PetitionManager",
  "abi": [
    {
      "constant": true,
      "inputs": [
        {
          "name": "",
          "type": "uint256"
        }
      ],
      "name": "petitions",
      "outputs": [
        {
          "name": "name",
          "type": "string"
        },
        {
          "name": "description",
          "type": "string"
        },
        {
          "name": "link",
          "type": "string"
        },
        {
          "name": "ipfs_banner",
          "type": "string"
        },
        {
          "name": "creator",
          "type": "address"
        },
        {
          "name": "totalSigns",
          "type": "uint256"
        },
        {
          "name": "targetSigns",
          "type": "uint256"
        },
        {
          "name": "isOpen",
          "type": "bool"
        }
      ],
      "payable": false,
      "stateMutability": "view",
      "type": "function"
    },
    {
      "constant": false,
      "inputs": [],
      "name": "unpause",
      "outputs": [],
      "payable": false,
      "stateMutability": "nonpayable",
      "type": "function"
    },
    {
      "constant": true,
      "inputs": [
        {
          "name": "account",
          "type": "address"
        }
      ],
      "name": "isPauser",
      "outputs": [
        {
          "name": "",
          "type": "bool"
        }
      ],
      "payable": false,
      "stateMutability": "view",
      "type": "function"
    },
    {
      "constant": true,
      "inputs": [],
      "name": "paused",
      "outputs": [
        {
          "name": "",
          "type": "bool"
        }
      ],
      "payable": false,
      "stateMutability": "view",
      "type": "function"
    },
    {
      "constant": false,
      "inputs": [],
      "name": "renouncePauser",
      "outputs": [],
      "payable": false,
      "stateMutability": "nonpayable",
      "type": "function"
    },
    {
      "constant": false,
      "inputs": [],
      "name": "renounceOwnership",
      "outputs": [],
      "payable": false,
      "stateMutability": "nonpayable",
      "type": "function"
    },
    {
      "constant": false,
      "inputs": [
        {
          "name": "account",
          "type": "address"
        }
      ],
      "name": "addPauser",
      "outputs": [],
      "payable": false,
      "stateMutability": "nonpayable",
      "type": "function"
    },
    {
      "constant": false,
      "inputs": [],
      "name": "pause",
      "outputs": [],
      "payable": false,
      "stateMutability": "nonpayable",
      "type": "function"
    },
    {
      "constant": true,
      "inputs": [],
      "name": "owner",
      "outputs": [
        {
          "name": "",
          "type": "address"
        }
      ],
      "payable": false,
      "stateMutability": "view",
      "type": "function"
    },
    {
      "constant": true,
      "inputs": [],
      "name": "isOwner",
      "outputs": [
        {
          "name": "",
          "type": "bool"
        }
      ],
      "payable": false,
      "stateMutability": "view",
      "type": "function"
    },
    {
      "constant": true,
      "inputs": [
        {
          "name": "",
          "type": "address"
        }
      ],
      "name": "users",
      "outputs": [
        {
          "name": "name",
          "type": "string"
        },
        {
          "name": "ens",
          "type": "string"
        },
        {
          "name": "ipfs_avatar",
          "type": "string"
        }
      ],
      "payable": false,
      "stateMutability": "view",
      "type": "function"
    },
    {
      "constant": true,
      "inputs": [],
      "name": "idGenerator",
      "outputs": [
        {
          "name": "",
          "type": "uint256"
        }
      ],
      "payable": false,
      "stateMutability": "view",
      "type": "function"
    },
    {
      "constant": false,
      "inputs": [
        {
          "name": "newOwner",
          "type": "address"
        }
      ],
      "name": "transferOwnership",
      "outputs": [],
      "payable": false,
      "stateMutability": "nonpayable",
      "type": "function"
    },
    {
      "anonymous": false,
      "inputs": [
        {
          "indexed": true,
          "name": "userAddress",
          "type": "address"
        },
        {
          "indexed": false,
          "name": "name",
          "type": "string"
        }
      ],
      "name": "LogUserCreated",
      "type": "event"
    },
    {
      "anonymous": false,
      "inputs": [
        {
          "indexed": true,
          "name": "creator",
          "type": "address"
        },
        {
          "indexed": false,
          "name": "petitionId",
          "type": "uint256"
        }
      ],
      "name": "LogPetitionCreated",
      "type": "event"
    },
    {
      "anonymous": false,
      "inputs": [
        {
          "indexed": true,
          "name": "signer",
          "type": "address"
        },
        {
          "indexed": false,
          "name": "petitionId",
          "type": "uint256"
        },
        {
          "indexed": false,
          "name": "totalSigns",
          "type": "uint256"
        }
      ],
      "name": "LogPetitionSigned",
      "type": "event"
    },
    {
      "anonymous": false,
      "inputs": [
        {
          "indexed": false,
          "name": "petitionId",
          "type": "uint256"
        }
      ],
      "name": "LogPetitionClosed",
      "type": "event"
    },
    {
      "anonymous": false,
      "inputs": [
        {
          "indexed": false,
          "name": "account",
          "type": "address"
        }
      ],
      "name": "Paused",
      "type": "event"
    },
    {
      "anonymous": false,
      "inputs": [
        {
          "indexed": false,
          "name": "account",
          "type": "address"
        }
      ],
      "name": "Unpaused",
      "type": "event"
    },
    {
      "anonymous": false,
      "inputs": [
        {
          "indexed": true,
          "name": "account",
          "type": "address"
        }
      ],
      "name": "PauserAdded",
      "type": "event"
    },
    {
      "anonymous": false,
      "inputs": [
        {
          "indexed": true,
          "name": "account",
          "type": "address"
        }
      ],
      "name": "PauserRemoved",
      "type": "event"
    },
    {
      "anonymous": false,
      "inputs": [
        {
          "indexed": true,
          "name": "previousOwner",
          "type": "address"
        },
        {
          "indexed": true,
          "name": "newOwner",
          "type": "address"
        }
      ],
      "name": "OwnershipTransferred",
      "type": "event"
    },
    {
      "constant": false,
      "inputs": [
        {
          "name": "_name",
          "type": "string"
        },
        {
          "name": "_ens",
          "type": "string"
        },
        {
          "name": "_ipfs_avatar",
          "type": "string"
        }
      ],
      "name": "createUser",
      "outputs": [
        {
          "name": "",
          "type": "bool"
        }
      ],
      "payable": false,
      "stateMutability": "nonpayable",
      "type": "function"
    },
    {
      "constant": true,
      "inputs": [
        {
          "name": "petitionId",
          "type": "uint256"
        }
      ],
      "name": "readPetition",
      "outputs": [
        {
          "name": "name",
          "type": "string"
        },
        {
          "name": "description",
          "type": "string"
        },
        {
          "name": "link",
          "type": "string"
        },
        {
          "name": "ipfs_banner",
          "type": "string"
        },
        {
          "name": "creator",
          "type": "address"
        },
        {
          "name": "targetSigns",
          "type": "uint256"
        },
        {
          "name": "totalSigns",
          "type": "uint256"
        },
        {
          "name": "isOpen",
          "type": "bool"
        }
      ],
      "payable": false,
      "stateMutability": "view",
      "type": "function"
    },
    {
      "constant": true,
      "inputs": [
        {
          "name": "userAddress",
          "type": "address"
        }
      ],
      "name": "readUser",
      "outputs": [
        {
          "name": "name",
          "type": "string"
        },
        {
          "name": "ens",
          "type": "string"
        },
        {
          "name": "ipfs_avatar",
          "type": "string"
        }
      ],
      "payable": false,
      "stateMutability": "view",
      "type": "function"
    },
    {
      "constant": false,
      "inputs": [
        {
          "name": "_name",
          "type": "string"
        },
        {
          "name": "_description",
          "type": "string"
        },
        {
          "name": "_link",
          "type": "string"
        },
        {
          "name": "_ipfs_banner",
          "type": "string"
        },
        {
          "name": "_targetSigns",
          "type": "uint256"
        }
      ],
      "name": "createPetition",
      "outputs": [
        {
          "name": "",
          "type": "uint256"
        }
      ],
      "payable": false,
      "stateMutability": "nonpayable",
      "type": "function"
    },
    {
      "constant": false,
      "inputs": [
        {
          "name": "petitionId",
          "type": "uint256"
        }
      ],
      "name": "signPetition",
      "outputs": [
        {
          "name": "",
          "type": "bool"
        }
      ],
      "payable": false,
      "stateMutability": "nonpayable",
      "type": "function"
    },
    {
      "constant": false,
      "inputs": [
        {
          "name": "petitionId",
          "type": "uint256"
        }
      ],
      "name": "closePetition",
      "outputs": [
        {
          "name": "",
          "type": "bool"
        }
      ],
      "payable": false,
      "stateMutability": "nonpayable",
      "type": "function"
    },
    {
      "constant": true,
      "inputs": [
        {
          "name": "start",
          "type": "uint256"
        },
        {
          "name": "end",
          "type": "uint256"
        },
        {
          "name": "petitionId",
          "type": "uint256"
        }
      ],
      "name": "getSignaturesFromRange",
      "outputs": [
        {
          "name": "",
          "type": "address[]"
        }
      ],
      "payable": false,
      "stateMutability": "view",
      "type": "function"
    }
  ],
  "bytecode": "0x6080604052336000806101000a81548173ffffffffffffffffffffffffffffffffffffffff021916908373ffffffffffffffffffffffffffffffffffffffff1602179055506000809054906101000a900473ffffffffffffffffffffffffffffffffffffffff1673ffffffffffffffffffffffffffffffffffffffff16600073ffffffffffffffffffffffffffffffffffffffff167f8be0079c531659141344cd1fd0a4f28419497f9722a3daafe3b4186f6b6457e060405160405180910390a3620000d133620000f260201b60201c565b6000600260006101000a81548160ff02191690831515021790555062000317565b6200010d8160016200015360201b620032621790919060201c565b8073ffffffffffffffffffffffffffffffffffffffff167f6719d08c1888103bea251a4ed56406bd0c3e69723c8a1686e017e7bbe159b6f860405160405180910390a250565b6200016582826200023760201b60201c565b15620001d9576040517f08c379a000000000000000000000000000000000000000000000000000000000815260040180806020018281038252601f8152602001807f526f6c65733a206163636f756e7420616c72656164792068617320726f6c650081525060200191505060405180910390fd5b60018260000160008373ffffffffffffffffffffffffffffffffffffffff1673ffffffffffffffffffffffffffffffffffffffff16815260200190815260200160002060006101000a81548160ff0219169083151502179055505050565b60008073ffffffffffffffffffffffffffffffffffffffff168273ffffffffffffffffffffffffffffffffffffffff161415620002c0576040517f08c379a0000000000000000000000000000000000000000000000000000000008152600401808060200182810382526022815260200180620038c36022913960400191505060405180910390fd5b8260000160008373ffffffffffffffffffffffffffffffffffffffff1673ffffffffffffffffffffffffffffffffffffffff16815260200190815260200160002060009054906101000a900460ff16905092915050565b61359c80620003276000396000f3fe608060405234801561001057600080fd5b506004361061012c5760003560e01c80638456cb59116100ad578063cafe3a7e11610071578063cafe3a7e14610ebe578063dcad018014610f55578063e7bd92b914610f9b578063f2fde38b14610fb9578063f345a99714610ffd5761012c565b80638456cb5914610b1e5780638da5cb5b14610b285780638f32d59b14610b725780638f34b66e14610b94578063a87430ba14610d295761012c565b80635c975abb116100f45780635c975abb1461086d57806362aee0921461088f5780636ef8d66d14610ac6578063715018a614610ad057806382dc1ec414610ada5761012c565b80633ad50ded146101315780633edd81d5146103685780633f4ba83a1461060657806346fbf68e1461061057806359ae069b1461066c575b600080fd5b61015d6004803603602081101561014757600080fd5b8101908080359060200190929190505050611043565b60405180806020018060200180602001806020018973ffffffffffffffffffffffffffffffffffffffff1673ffffffffffffffffffffffffffffffffffffffff1681526020018881526020018781526020018615151515815260200185810385528d818151815260200191508051906020019080838360005b838110156101f15780820151818401526020810190506101d6565b50505050905090810190601f16801561021e5780820380516001836020036101000a031916815260200191505b5085810384528c818151815260200191508051906020019080838360005b8381101561025757808201518184015260208101905061023c565b50505050905090810190601f1680156102845780820380516001836020036101000a031916815260200191505b5085810383528b818151815260200191508051906020019080838360005b838110156102bd5780820151818401526020810190506102a2565b50505050905090810190601f1680156102ea5780820380516001836020036101000a031916815260200191505b5085810382528a818151815260200191508051906020019080838360005b83811015610323578082015181840152602081019050610308565b50505050905090810190601f1680156103505780820380516001836020036101000a031916815260200191505b509c5050505050505050505050505060405180910390f35b6105f0600480360360a081101561037e57600080fd5b810190808035906020019064010000000081111561039b57600080fd5b8201836020820111156103ad57600080fd5b803590602001918460018302840111640100000000831117156103cf57600080fd5b91908080601f016020809104026020016040519081016040528093929190818152602001838380828437600081840152601f19601f8201169050808301925050505050505091929192908035906020019064010000000081111561043257600080fd5b82018360208201111561044457600080fd5b8035906020019184600183028401116401000000008311171561046657600080fd5b91908080601f016020809104026020016040519081016040528093929190818152602001838380828437600081840152601f19601f820116905080830192505050505050509192919290803590602001906401000000008111156104c957600080fd5b8201836020820111156104db57600080fd5b803590602001918460018302840111640100000000831117156104fd57600080fd5b91908080601f016020809104026020016040519081016040528093929190818152602001838380828437600081840152601f19601f8201169050808301925050505050505091929192908035906020019064010000000081111561056057600080fd5b82018360208201111561057257600080fd5b8035906020019184600183028401116401000000008311171561059457600080fd5b91908080601f016020809104026020016040519081016040528093929190818152602001838380828437600081840152601f19601f82011690508083019250505050505050919291929080359060200190929190505050611318565b6040518082815260200191505060405180910390f35b61060e61153e565b005b6106526004803603602081101561062657600080fd5b81019080803573ffffffffffffffffffffffffffffffffffffffff16906020019092919050505061169e565b604051808215151515815260200191505060405180910390f35b6108536004803603606081101561068257600080fd5b810190808035906020019064010000000081111561069f57600080fd5b8201836020820111156106b157600080fd5b803590602001918460018302840111640100000000831117156106d357600080fd5b91908080601f016020809104026020016040519081016040528093929190818152602001838380828437600081840152601f19601f8201169050808301925050505050505091929192908035906020019064010000000081111561073657600080fd5b82018360208201111561074857600080fd5b8035906020019184600183028401116401000000008311171561076a57600080fd5b91908080601f016020809104026020016040519081016040528093929190818152602001838380828437600081840152601f19601f820116905080830192505050505050509192919290803590602001906401000000008111156107cd57600080fd5b8201836020820111156107df57600080fd5b8035906020019184600183028401116401000000008311171561080157600080fd5b91908080601f016020809104026020016040519081016040528093929190818152602001838380828437600081840152601f19601f8201169050808301925050505050505091929192905050506116bb565b604051808215151515815260200191505060405180910390f35b610875611971565b604051808215151515815260200191505060405180910390f35b6108bb600480360360208110156108a557600080fd5b8101908080359060200190929190505050611988565b60405180806020018060200180602001806020018973ffffffffffffffffffffffffffffffffffffffff1673ffffffffffffffffffffffffffffffffffffffff1681526020018881526020018781526020018615151515815260200185810385528d818151815260200191508051906020019080838360005b8381101561094f578082015181840152602081019050610934565b50505050905090810190601f16801561097c5780820380516001836020036101000a031916815260200191505b5085810384528c818151815260200191508051906020019080838360005b838110156109b557808201518184015260208101905061099a565b50505050905090810190601f1680156109e25780820380516001836020036101000a031916815260200191505b5085810383528b818151815260200191508051906020019080838360005b83811015610a1b578082015181840152602081019050610a00565b50505050905090810190601f168015610a485780820380516001836020036101000a031916815260200191505b5085810382528a818151815260200191508051906020019080838360005b83811015610a81578082015181840152602081019050610a66565b50505050905090810190601f168015610aae5780820380516001836020036101000a031916815260200191505b509c5050505050505050505050505060405180910390f35b610ace611d3a565b005b610ad8611d45565b005b610b1c60048036036020811015610af057600080fd5b81019080803573ffffffffffffffffffffffffffffffffffffffff169060200190929190505050611e7e565b005b610b26611ee8565b005b610b30612049565b604051808273ffffffffffffffffffffffffffffffffffffffff1673ffffffffffffffffffffffffffffffffffffffff16815260200191505060405180910390f35b610b7a612072565b604051808215151515815260200191505060405180910390f35b610bd660048036036020811015610baa57600080fd5b81019080803573ffffffffffffffffffffffffffffffffffffffff1690602001909291905050506120c9565b60405180806020018060200180602001848103845287818151815260200191508051906020019080838360005b83811015610c1e578082015181840152602081019050610c03565b50505050905090810190601f168015610c4b5780820380516001836020036101000a031916815260200191505b50848103835286818151815260200191508051906020019080838360005b83811015610c84578082015181840152602081019050610c69565b50505050905090810190601f168015610cb15780820380516001836020036101000a031916815260200191505b50848103825285818151815260200191508051906020019080838360005b83811015610cea578082015181840152602081019050610ccf565b50505050905090810190601f168015610d175780820380516001836020036101000a031916815260200191505b50965050505050505060405180910390f35b610d6b60048036036020811015610d3f57600080fd5b81019080803573ffffffffffffffffffffffffffffffffffffffff1690602001909291905050506122f6565b60405180806020018060200180602001848103845287818151815260200191508051906020019080838360005b83811015610db3578082015181840152602081019050610d98565b50505050905090810190601f168015610de05780820380516001836020036101000a031916815260200191505b50848103835286818151815260200191508051906020019080838360005b83811015610e19578082015181840152602081019050610dfe565b50505050905090810190601f168015610e465780820380516001836020036101000a031916815260200191505b50848103825285818151815260200191508051906020019080838360005b83811015610e7f578082015181840152602081019050610e64565b50505050905090810190601f168015610eac5780820380516001836020036101000a031916815260200191505b50965050505050505060405180910390f35b610efe60048036036060811015610ed457600080fd5b810190808035906020019092919080359060200190929190803590602001909291905050506124e8565b6040518080602001828103825283818151815260200191508051906020019060200280838360005b83811015610f41578082015181840152602081019050610f26565b505050509050019250505060405180910390f35b610f8160048036036020811015610f6b57600080fd5b810190808035906020019092919050505061287d565b604051808215151515815260200191505060405180910390f35b610fa3612c8f565b6040518082815260200191505060405180910390f35b610ffb60048036036020811015610fcf57600080fd5b81019080803573ffffffffffffffffffffffffffffffffffffffff169060200190929190505050612c95565b005b6110296004803603602081101561101357600080fd5b8101908080359060200190929190505050612d1b565b604051808215151515815260200191505060405180910390f35b6004602052806000526040600020600091509050806000018054600181600116156101000203166002900480601f0160208091040260200160405190810160405280929190818152602001828054600181600116156101000203166002900480156110ef5780601f106110c4576101008083540402835291602001916110ef565b820191906000526020600020905b8154815290600101906020018083116110d257829003601f168201915b505050505090806001018054600181600116156101000203166002900480601f01602080910402602001604051908101604052809291908181526020018280546001816001161561010002031660029004801561118d5780601f106111625761010080835404028352916020019161118d565b820191906000526020600020905b81548152906001019060200180831161117057829003601f168201915b505050505090806002018054600181600116156101000203166002900480601f01602080910402602001604051908101604052809291908181526020018280546001816001161561010002031660029004801561122b5780601f106112005761010080835404028352916020019161122b565b820191906000526020600020905b81548152906001019060200180831161120e57829003601f168201915b505050505090806003018054600181600116156101000203166002900480601f0160208091040260200160405190810160405280929190818152602001828054600181600116156101000203166002900480156112c95780601f1061129e576101008083540402835291602001916112c9565b820191906000526020600020905b8154815290600101906020018083116112ac57829003601f168201915b5050505050908060040160009054906101000a900473ffffffffffffffffffffffffffffffffffffffff16908060050154908060060154908060090160009054906101000a900460ff16905088565b600080600560003373ffffffffffffffffffffffffffffffffffffffff1673ffffffffffffffffffffffffffffffffffffffff168152602001908152602001600020600001805460018160011615610100020316600290049050116113e5576040517f08c379a000000000000000000000000000000000000000000000000000000000815260040180806020018281038252601b8152602001807f596f75206e65656420746f2072656769737465722066697273742e000000000081525060200191505060405180910390fd5b6000600354905060006004600083815260200190815260200160002090508781600001908051906020019061141b92919061333d565b508681600101908051906020019061143492919061333d565b508581600201908051906020019061144d92919061333d565b508481600301908051906020019061146692919061333d565b50338160040160006101000a81548173ffffffffffffffffffffffffffffffffffffffff021916908373ffffffffffffffffffffffffffffffffffffffff16021790555083816006018190555060018160090160006101000a81548160ff0219169083151502179055506003600081548092919060010191905055503373ffffffffffffffffffffffffffffffffffffffff167f7a84b5e79038d82c11ccbbba3ecb756204a826bb384fa378acd97cca53427d07836040518082815260200191505060405180910390a2819250505095945050505050565b6115473361169e565b61159c576040517f08c379a00000000000000000000000000000000000000000000000000000000081526004018080602001828103825260308152602001806134856030913960400191505060405180910390fd5b600260009054906101000a900460ff1661161e576040517f08c379a00000000000000000000000000000000000000000000000000000000081526004018080602001828103825260148152602001807f5061757361626c653a206e6f742070617573656400000000000000000000000081525060200191505060405180910390fd5b6000600260006101000a81548160ff0219169083151502179055507f5db9ee0a495bf2e6ff9c91a7834c1ba4fdd244a5e8aa4e537bd38aeae4b073aa33604051808273ffffffffffffffffffffffffffffffffffffffff1673ffffffffffffffffffffffffffffffffffffffff16815260200191505060405180910390a1565b60006116b4826001612ecf90919063ffffffff16565b9050919050565b600080600560003373ffffffffffffffffffffffffffffffffffffffff1673ffffffffffffffffffffffffffffffffffffffff16815260200190815260200160002060000180546001816001161561010002031660029004905014611788576040517f08c379a000000000000000000000000000000000000000000000000000000000815260040180806020018281038252601a8152602001807f596f752061726520616c7265616479207265676973746572656400000000000081525060200191505060405180910390fd5b60008451116117ff576040517f08c379a00000000000000000000000000000000000000000000000000000000081526004018080602001828103825260138152602001807f4e616d652063616e6e6f74206265206e756c6c0000000000000000000000000081525060200191505060405180910390fd5b604051806060016040528085815260200184815260200183815250600560003373ffffffffffffffffffffffffffffffffffffffff1673ffffffffffffffffffffffffffffffffffffffff16815260200190815260200160002060008201518160000190805190602001906118759291906133bd565b5060208201518160010190805190602001906118929291906133bd565b5060408201518160020190805190602001906118af9291906133bd565b509050503373ffffffffffffffffffffffffffffffffffffffff167f85f024f9746b4d2a8a7c54f32f1eb2a1e3b223a9d92308b3186eb8a9ee955f9e856040518080602001828103825283818151815260200191508051906020019080838360005b8381101561192c578082015181840152602081019050611911565b50505050905090810190601f1680156119595780820380516001836020036101000a031916815260200191505b509250505060405180910390a2600190509392505050565b6000600260009054906101000a900460ff16905090565b60608060608060008060008088600073ffffffffffffffffffffffffffffffffffffffff166004600083815260200190815260200160002060040160009054906101000a900473ffffffffffffffffffffffffffffffffffffffff1673ffffffffffffffffffffffffffffffffffffffff161415611a51576040517f08c379a00000000000000000000000000000000000000000000000000000000081526004018080602001828103825260228152602001806134636022913960400191505060405180910390fd5b6000600460008c81526020019081526020016000209050806000018054600181600116156101000203166002900480601f016020809104026020016040519081016040528092919081815260200182805460018160011615610100020316600290048015611b005780601f10611ad557610100808354040283529160200191611b00565b820191906000526020600020905b815481529060010190602001808311611ae357829003601f168201915b50505050509950806001018054600181600116156101000203166002900480601f016020809104026020016040519081016040528092919081815260200182805460018160011615610100020316600290048015611b9f5780601f10611b7457610100808354040283529160200191611b9f565b820191906000526020600020905b815481529060010190602001808311611b8257829003601f168201915b50505050509850806002018054600181600116156101000203166002900480601f016020809104026020016040519081016040528092919081815260200182805460018160011615610100020316600290048015611c3e5780601f10611c1357610100808354040283529160200191611c3e565b820191906000526020600020905b815481529060010190602001808311611c2157829003601f168201915b50505050509750806003018054600181600116156101000203166002900480601f016020809104026020016040519081016040528092919081815260200182805460018160011615610100020316600290048015611cdd5780601f10611cb257610100808354040283529160200191611cdd565b820191906000526020600020905b815481529060010190602001808311611cc057829003601f168201915b505050505096508060040160009054906101000a900473ffffffffffffffffffffffffffffffffffffffff16955080600601549450806005015493508060090160009054906101000a900460ff1692505050919395975091939597565b611d4333612fad565b565b611d4d612072565b611dbf576040517f08c379a00000000000000000000000000000000000000000000000000000000081526004018080602001828103825260208152602001807f4f776e61626c653a2063616c6c6572206973206e6f7420746865206f776e657281525060200191505060405180910390fd5b600073ffffffffffffffffffffffffffffffffffffffff166000809054906101000a900473ffffffffffffffffffffffffffffffffffffffff1673ffffffffffffffffffffffffffffffffffffffff167f8be0079c531659141344cd1fd0a4f28419497f9722a3daafe3b4186f6b6457e060405160405180910390a360008060006101000a81548173ffffffffffffffffffffffffffffffffffffffff021916908373ffffffffffffffffffffffffffffffffffffffff160217905550565b611e873361169e565b611edc576040517f08c379a00000000000000000000000000000000000000000000000000000000081526004018080602001828103825260308152602001806134856030913960400191505060405180910390fd5b611ee581613007565b50565b611ef13361169e565b611f46576040517f08c379a00000000000000000000000000000000000000000000000000000000081526004018080602001828103825260308152602001806134856030913960400191505060405180910390fd5b600260009054906101000a900460ff1615611fc9576040517f08c379a00000000000000000000000000000000000000000000000000000000081526004018080602001828103825260108152602001807f5061757361626c653a207061757365640000000000000000000000000000000081525060200191505060405180910390fd5b6001600260006101000a81548160ff0219169083151502179055507f62e78cea01bee320cd4e420270b5ea74000d11b0c9f74754ebdbfc544b05a25833604051808273ffffffffffffffffffffffffffffffffffffffff1673ffffffffffffffffffffffffffffffffffffffff16815260200191505060405180910390a1565b60008060009054906101000a900473ffffffffffffffffffffffffffffffffffffffff16905090565b60008060009054906101000a900473ffffffffffffffffffffffffffffffffffffffff1673ffffffffffffffffffffffffffffffffffffffff163373ffffffffffffffffffffffffffffffffffffffff1614905090565b60608060606000600560008673ffffffffffffffffffffffffffffffffffffffff1673ffffffffffffffffffffffffffffffffffffffff1681526020019081526020016000209050806000018054600181600116156101000203166002900480601f0160208091040260200160405190810160405280929190818152602001828054600181600116156101000203166002900480156121a95780601f1061217e576101008083540402835291602001916121a9565b820191906000526020600020905b81548152906001019060200180831161218c57829003601f168201915b50505050509350806001018054600181600116156101000203166002900480601f0160208091040260200160405190810160405280929190818152602001828054600181600116156101000203166002900480156122485780601f1061221d57610100808354040283529160200191612248565b820191906000526020600020905b81548152906001019060200180831161222b57829003601f168201915b50505050509250806002018054600181600116156101000203166002900480601f0160208091040260200160405190810160405280929190818152602001828054600181600116156101000203166002900480156122e75780601f106122bc576101008083540402835291602001916122e7565b820191906000526020600020905b8154815290600101906020018083116122ca57829003601f168201915b50505050509150509193909250565b6005602052806000526040600020600091509050806000018054600181600116156101000203166002900480601f0160208091040260200160405190810160405280929190818152602001828054600181600116156101000203166002900480156123a25780601f10612377576101008083540402835291602001916123a2565b820191906000526020600020905b81548152906001019060200180831161238557829003601f168201915b505050505090806001018054600181600116156101000203166002900480601f0160208091040260200160405190810160405280929190818152602001828054600181600116156101000203166002900480156124405780601f1061241557610100808354040283529160200191612440565b820191906000526020600020905b81548152906001019060200180831161242357829003601f168201915b505050505090806002018054600181600116156101000203166002900480601f0160208091040260200160405190810160405280929190818152602001828054600181600116156101000203166002900480156124de5780601f106124b3576101008083540402835291602001916124de565b820191906000526020600020905b8154815290600101906020018083116124c157829003601f168201915b5050505050905083565b606081600073ffffffffffffffffffffffffffffffffffffffff166004600083815260200190815260200160002060040160009054906101000a900473ffffffffffffffffffffffffffffffffffffffff1673ffffffffffffffffffffffffffffffffffffffff1614156125a7576040517f08c379a00000000000000000000000000000000000000000000000000000000081526004018080602001828103825260228152602001806134636022913960400191505060405180910390fd5b6000600560003373ffffffffffffffffffffffffffffffffffffffff1673ffffffffffffffffffffffffffffffffffffffff16815260200190815260200160002060000180546001816001161561010002031660029004905011612673576040517f08c379a000000000000000000000000000000000000000000000000000000000815260040180806020018281038252601b8152602001807f596f75206e65656420746f2072656769737465722066697273742e000000000081525060200191505060405180910390fd5b8385106126cb576040517f08c379a000000000000000000000000000000000000000000000000000000000815260040180806020018281038252602781526020018061354a6027913960400191505060405180910390fd5b6004600084815260200190815260200160002060050154841115612757576040517f08c379a00000000000000000000000000000000000000000000000000000000081526004018080602001828103825260178152602001807f456e64206f662072616e676520697320746f6f2062696700000000000000000081525060200191505060405180910390fd5b60606000600460008681526020019081526020016000209050600080905060008890505b87811161286e57600083600701600083815260200190815260200160002060009054906101000a900473ffffffffffffffffffffffffffffffffffffffff1690508360080160008273ffffffffffffffffffffffffffffffffffffffff1673ffffffffffffffffffffffffffffffffffffffff16815260200190815260200160002060009054906101000a900460ff1615612860578085848151811061281d57fe5b602002602001019073ffffffffffffffffffffffffffffffffffffffff16908173ffffffffffffffffffffffffffffffffffffffff168152505082806001019350505b50808060010191505061277b565b50829450505050509392505050565b600080600560003373ffffffffffffffffffffffffffffffffffffffff1673ffffffffffffffffffffffffffffffffffffffff1681526020019081526020016000206000018054600181600116156101000203166002900490501161294a576040517f08c379a000000000000000000000000000000000000000000000000000000000815260040180806020018281038252601b8152602001807f596f75206e65656420746f2072656769737465722066697273742e000000000081525060200191505060405180910390fd5b81600073ffffffffffffffffffffffffffffffffffffffff166004600083815260200190815260200160002060040160009054906101000a900473ffffffffffffffffffffffffffffffffffffffff1673ffffffffffffffffffffffffffffffffffffffff161415612a07576040517f08c379a00000000000000000000000000000000000000000000000000000000081526004018080602001828103825260228152602001806134636022913960400191505060405180910390fd5b60006004600085815260200190815260200160002090508060080160003373ffffffffffffffffffffffffffffffffffffffff1673ffffffffffffffffffffffffffffffffffffffff16815260200190815260200160002060009054906101000a900460ff1615612ae0576040517f08c379a00000000000000000000000000000000000000000000000000000000081526004018080602001828103825260208152602001807f596f7520616c7265616479207369676e656420746865207065746974696f6e2181525060200191505060405180910390fd5b8060090160009054906101000a900460ff16612b64576040517f08c379a00000000000000000000000000000000000000000000000000000000081526004018080602001828103825260188152602001807f546865207065746974696f6e2077617320636c6f7365642e000000000000000081525060200191505060405180910390fd5b338160070160008360050154815260200190815260200160002060006101000a81548173ffffffffffffffffffffffffffffffffffffffff021916908373ffffffffffffffffffffffffffffffffffffffff16021790555060018160080160003373ffffffffffffffffffffffffffffffffffffffff1673ffffffffffffffffffffffffffffffffffffffff16815260200190815260200160002060006101000a81548160ff02191690831515021790555080600501600081548092919060010191905055503373ffffffffffffffffffffffffffffffffffffffff167feb0577862f68791e5e65dabf4d79a642e4589666a011134b17d074d1ef18cd23858360050154604051808381526020018281526020019250505060405180910390a2600192505050919050565b60035481565b612c9d612072565b612d0f576040517f08c379a00000000000000000000000000000000000000000000000000000000081526004018080602001828103825260208152602001807f4f776e61626c653a2063616c6c6572206973206e6f7420746865206f776e657281525060200191505060405180910390fd5b612d1881613061565b50565b600081600073ffffffffffffffffffffffffffffffffffffffff166004600083815260200190815260200160002060040160009054906101000a900473ffffffffffffffffffffffffffffffffffffffff1673ffffffffffffffffffffffffffffffffffffffff161415612dda576040517f08c379a00000000000000000000000000000000000000000000000000000000081526004018080602001828103825260228152602001806134636022913960400191505060405180910390fd5b823373ffffffffffffffffffffffffffffffffffffffff166004600083815260200190815260200160002060040160009054906101000a900473ffffffffffffffffffffffffffffffffffffffff1673ffffffffffffffffffffffffffffffffffffffff1614612e95576040517f08c379a000000000000000000000000000000000000000000000000000000000815260040180806020018281038252602c81526020018061351e602c913960400191505060405180910390fd5b60006004600086815260200190815260200160002060090160006101000a81548160ff021916908315150217905550600192505050919050565b60008073ffffffffffffffffffffffffffffffffffffffff168273ffffffffffffffffffffffffffffffffffffffff161415612f56576040517f08c379a00000000000000000000000000000000000000000000000000000000081526004018080602001828103825260228152602001806134fc6022913960400191505060405180910390fd5b8260000160008373ffffffffffffffffffffffffffffffffffffffff1673ffffffffffffffffffffffffffffffffffffffff16815260200190815260200160002060009054906101000a900460ff16905092915050565b612fc18160016131a590919063ffffffff16565b8073ffffffffffffffffffffffffffffffffffffffff167fcd265ebaf09df2871cc7bd4133404a235ba12eff2041bb89d9c714a2621c7c7e60405160405180910390a250565b61301b81600161326290919063ffffffff16565b8073ffffffffffffffffffffffffffffffffffffffff167f6719d08c1888103bea251a4ed56406bd0c3e69723c8a1686e017e7bbe159b6f860405160405180910390a250565b600073ffffffffffffffffffffffffffffffffffffffff168173ffffffffffffffffffffffffffffffffffffffff1614156130e7576040517f08c379a00000000000000000000000000000000000000000000000000000000081526004018080602001828103825260268152602001806134b56026913960400191505060405180910390fd5b8073ffffffffffffffffffffffffffffffffffffffff166000809054906101000a900473ffffffffffffffffffffffffffffffffffffffff1673ffffffffffffffffffffffffffffffffffffffff167f8be0079c531659141344cd1fd0a4f28419497f9722a3daafe3b4186f6b6457e060405160405180910390a3806000806101000a81548173ffffffffffffffffffffffffffffffffffffffff021916908373ffffffffffffffffffffffffffffffffffffffff16021790555050565b6131af8282612ecf565b613204576040517f08c379a00000000000000000000000000000000000000000000000000000000081526004018080602001828103825260218152602001806134db6021913960400191505060405180910390fd5b60008260000160008373ffffffffffffffffffffffffffffffffffffffff1673ffffffffffffffffffffffffffffffffffffffff16815260200190815260200160002060006101000a81548160ff0219169083151502179055505050565b61326c8282612ecf565b156132df576040517f08c379a000000000000000000000000000000000000000000000000000000000815260040180806020018281038252601f8152602001807f526f6c65733a206163636f756e7420616c72656164792068617320726f6c650081525060200191505060405180910390fd5b60018260000160008373ffffffffffffffffffffffffffffffffffffffff1673ffffffffffffffffffffffffffffffffffffffff16815260200190815260200160002060006101000a81548160ff0219169083151502179055505050565b828054600181600116156101000203166002900490600052602060002090601f016020900481019282601f1061337e57805160ff19168380011785556133ac565b828001600101855582156133ac579182015b828111156133ab578251825591602001919060010190613390565b5b5090506133b9919061343d565b5090565b828054600181600116156101000203166002900490600052602060002090601f016020900481019282601f106133fe57805160ff191683800117855561342c565b8280016001018555821561342c579182015b8281111561342b578251825591602001919060010190613410565b5b509050613439919061343d565b5090565b61345f91905b8082111561345b576000816000905550600101613443565b5090565b9056fe526571756573746564207065746974696f6e20646f6573206e6f7420657869737421506175736572526f6c653a2063616c6c657220646f6573206e6f742068617665207468652050617573657220726f6c654f776e61626c653a206e6577206f776e657220697320746865207a65726f2061646472657373526f6c65733a206163636f756e7420646f6573206e6f74206861766520726f6c65526f6c65733a206163636f756e7420697320746865207a65726f20616464726573734f6e6c79207468652063726561746f72206f6620746865207065746974696f6e2063616e20646f20746869735374617274206f662072616e6765206d75737420626520736d616c6c6572207468616e20656e64a165627a7a72305820df2f7d76d16bd486eadb98c2de26b81cc7cc6b31e5efeaf4a272e63bb8d4d3680029526f6c65733a206163636f756e7420697320746865207a65726f2061646472657373",
  "source": "pragma solidity ^0.5.0;\n\nimport 'openzeppelin-solidity/contracts/ownership/Ownable.sol';\nimport 'openzeppelin-solidity/contracts/lifecycle/Pausable.sol';\n\ncontract PetitionManager is Ownable, Pausable {\n\n    /*\n        Create a variable to keep track of the event ID numbers.\n    */\n    uint public idGenerator;\n\n    /*\n        Struct containing details about a petitions and its signers.\n    */\n    struct Petition {\n        string name;\n        string description;\n        string link;\n        string ipfs_banner;\n        address creator;\n        uint totalSigns;\n        uint targetSigns;\n        mapping(uint => address) signersId;\n        mapping(address => bool) signers;\n        bool isOpen;\n    }\n\n    struct User {\n        string name;\n        string ens;\n        string ipfs_avatar;\n    }\n\n    mapping (uint => Petition) public petitions;\n    mapping (address => User) public users;\n\n    event LogUserCreated(address indexed userAddress, string name);\n    event LogPetitionCreated(address indexed creator, uint petitionId);\n    event LogPetitionSigned(address indexed signer, uint petitionId, uint totalSigns);\n    event LogPetitionClosed(uint petitionId);\n\n    modifier notUser(){\n        //Best way to check if a string is uninitialized\n        require(bytes(users[msg.sender].name).length == 0, \"You are already registered\");\n        _;\n    }\n\n    modifier isUser(){\n        //Best way to check if a string is uninitialized\n        require(bytes(users[msg.sender].name).length > 0, \"You need to register first.\");\n        _;\n    }\n\n    modifier isCreator(uint _petitionId){\n        require(petitions[_petitionId].creator == msg.sender, \"Only the creator of the petition can do this\");\n        _;\n    }\n\n    modifier petitionExists(uint _petitionId){\n        require(petitions[_petitionId].creator != address(0), \"Requested petition does not exist!\");\n        _;\n    }\n\n    function createUser(string memory _name, string memory _ens, string memory _ipfs_avatar)\n    public notUser returns(bool) {\n        require(bytes(_name).length > 0, \"Name cannot be null\");\n        users[msg.sender] = User({name: _name, ens: _ens, ipfs_avatar:_ipfs_avatar});\n        emit LogUserCreated(msg.sender,_name);\n        return true;\n    }\n\n    function readPetition(uint petitionId)\n    public view petitionExists(petitionId) returns(string memory name, string memory description, string memory link,\n     string memory ipfs_banner, address creator, uint  targetSigns, uint totalSigns, bool isOpen) {\n        Petition storage p = petitions[petitionId];\n        name = p.name;\n        description = p.description;\n        link = p.link;\n        ipfs_banner = p.ipfs_banner;\n        creator = p.creator;\n        targetSigns = p.targetSigns;\n        totalSigns = p.totalSigns;\n        isOpen = p.isOpen;\n     }\n\n    function readUser(address userAddress)\n    public view returns(string memory name, string memory ens, string memory ipfs_avatar){\n        User storage u = users[userAddress];\n        name = u.name;\n        ens = u.ens;\n        ipfs_avatar = u.ipfs_avatar;\n    }\n\n    function createPetition(string memory _name, string memory _description, string memory _link,\n     string memory _ipfs_banner, uint  _targetSigns )\n    public isUser returns(uint)\n    {\n        uint petitionId = idGenerator;\n        Petition storage p = petitions[petitionId];\n        p.name = _name;\n        p.description = _description;\n        p.link = _link;\n        p.ipfs_banner = _ipfs_banner;\n        p.creator = msg.sender;\n        p.targetSigns = _targetSigns;\n        p.isOpen = true;\n        idGenerator++;\n        emit LogPetitionCreated(msg.sender,petitionId);\n        return petitionId;\n    }\n\n    function signPetition(uint petitionId)\n    public isUser petitionExists(petitionId) returns(bool)\n    {\n        Petition storage p = petitions[petitionId];\n        require(!p.signers[msg.sender], \"You already signed the petition!\");\n        require(p.isOpen, \"The petition was closed.\");\n        p.signersId[p.totalSigns] = msg.sender;\n        p.signers[msg.sender] = true;\n        p.totalSigns++;\n        //Do something if targetSigns are reached?!\n        emit LogPetitionSigned(msg.sender,petitionId,p.totalSigns);\n        return true;\n    }\n\n    function closePetition(uint petitionId)\n    public petitionExists(petitionId) isCreator(petitionId) returns(bool)\n    {\n        petitions[petitionId].isOpen = false;\n        return true;\n    }\n\n    function getSignaturesFromRange(uint start, uint end, uint petitionId)\n    public view petitionExists(petitionId) isUser returns(address[] memory){\n        require(start < end, \"Start of range must be smaller than end\");\n        require(end<=petitions[petitionId].totalSigns,\"End of range is too big\");\n        address[] memory signArray;\n        Petition storage p = petitions[petitionId];\n        uint j = 0;\n        for(uint i = start; i<=end;i++){\n            address signer = p.signersId[i];\n            if(p.signers[signer]){\n                signArray[j] = signer;\n                j++;\n            }\n        }\n        return signArray;\n    }\n\n\n}",
  "sourcePath": "/home/franz/consensys/ConsensysBootcamp-FinalProject/contracts/PetitionManager.sol",
  "compiler": {
    "name": "solc",
    "version": "0.5.8+commit.23d335f2.Emscripten.clang"
  },
  "schemaVersion": "3.0.10",
  "updatedAt": "2019-07-31T11:52:39.329Z",
  "devdoc": {
    "methods": {
      "isOwner()": {
        "details": "Returns true if the caller is the current owner."
      },
      "owner()": {
        "details": "Returns the address of the current owner."
      },
      "pause()": {
        "details": "Called by a pauser to pause, triggers stopped state."
      },
      "paused()": {
        "details": "Returns true if the contract is paused, and false otherwise."
      },
      "renounceOwnership()": {
        "details": "Leaves the contract without owner. It will not be possible to call `onlyOwner` functions anymore. Can only be called by the current owner.     * > Note: Renouncing ownership will leave the contract without an owner, thereby removing any functionality that is only available to the owner."
      },
      "transferOwnership(address)": {
        "details": "Transfers ownership of the contract to a new account (`newOwner`). Can only be called by the current owner."
      },
      "unpause()": {
        "details": "Called by a pauser to unpause, returns to normal state."
      }
    }
  },
  "userdoc": {
    "methods": {}
  }
}