{
  "contractName": "PetitionManager",
  "abi": [
    {
      "constant": true,
      "inputs": [
        {
          "name": "",
          "type": "uint256"
        }
      ],
      "name": "petitions",
      "outputs": [
        {
          "name": "name",
          "type": "string"
        },
        {
          "name": "description",
          "type": "string"
        },
        {
          "name": "link",
          "type": "string"
        },
        {
          "name": "ipfs_banner",
          "type": "string"
        },
        {
          "name": "creator",
          "type": "address"
        },
        {
          "name": "totalSigns",
          "type": "uint256"
        },
        {
          "name": "targetSigns",
          "type": "uint256"
        },
        {
          "name": "isOpen",
          "type": "bool"
        }
      ],
      "payable": false,
      "stateMutability": "view",
      "type": "function"
    },
    {
      "constant": false,
      "inputs": [],
      "name": "unpause",
      "outputs": [],
      "payable": false,
      "stateMutability": "nonpayable",
      "type": "function"
    },
    {
      "constant": true,
      "inputs": [
        {
          "name": "account",
          "type": "address"
        }
      ],
      "name": "isPauser",
      "outputs": [
        {
          "name": "",
          "type": "bool"
        }
      ],
      "payable": false,
      "stateMutability": "view",
      "type": "function"
    },
    {
      "constant": true,
      "inputs": [],
      "name": "paused",
      "outputs": [
        {
          "name": "",
          "type": "bool"
        }
      ],
      "payable": false,
      "stateMutability": "view",
      "type": "function"
    },
    {
      "constant": false,
      "inputs": [],
      "name": "renouncePauser",
      "outputs": [],
      "payable": false,
      "stateMutability": "nonpayable",
      "type": "function"
    },
    {
      "constant": false,
      "inputs": [],
      "name": "renounceOwnership",
      "outputs": [],
      "payable": false,
      "stateMutability": "nonpayable",
      "type": "function"
    },
    {
      "constant": false,
      "inputs": [
        {
          "name": "account",
          "type": "address"
        }
      ],
      "name": "addPauser",
      "outputs": [],
      "payable": false,
      "stateMutability": "nonpayable",
      "type": "function"
    },
    {
      "constant": false,
      "inputs": [],
      "name": "pause",
      "outputs": [],
      "payable": false,
      "stateMutability": "nonpayable",
      "type": "function"
    },
    {
      "constant": true,
      "inputs": [],
      "name": "owner",
      "outputs": [
        {
          "name": "",
          "type": "address"
        }
      ],
      "payable": false,
      "stateMutability": "view",
      "type": "function"
    },
    {
      "constant": true,
      "inputs": [],
      "name": "isOwner",
      "outputs": [
        {
          "name": "",
          "type": "bool"
        }
      ],
      "payable": false,
      "stateMutability": "view",
      "type": "function"
    },
    {
      "constant": true,
      "inputs": [
        {
          "name": "",
          "type": "address"
        }
      ],
      "name": "users",
      "outputs": [
        {
          "name": "name",
          "type": "string"
        },
        {
          "name": "ens",
          "type": "string"
        },
        {
          "name": "ipfs_avatar",
          "type": "string"
        }
      ],
      "payable": false,
      "stateMutability": "view",
      "type": "function"
    },
    {
      "constant": true,
      "inputs": [],
      "name": "idGenerator",
      "outputs": [
        {
          "name": "",
          "type": "uint256"
        }
      ],
      "payable": false,
      "stateMutability": "view",
      "type": "function"
    },
    {
      "constant": false,
      "inputs": [
        {
          "name": "newOwner",
          "type": "address"
        }
      ],
      "name": "transferOwnership",
      "outputs": [],
      "payable": false,
      "stateMutability": "nonpayable",
      "type": "function"
    },
    {
      "anonymous": false,
      "inputs": [
        {
          "indexed": true,
          "name": "userAddress",
          "type": "address"
        },
        {
          "indexed": false,
          "name": "name",
          "type": "string"
        }
      ],
      "name": "LogUserCreated",
      "type": "event"
    },
    {
      "anonymous": false,
      "inputs": [
        {
          "indexed": true,
          "name": "creator",
          "type": "address"
        },
        {
          "indexed": false,
          "name": "petitionId",
          "type": "uint256"
        }
      ],
      "name": "LogPetitionCreated",
      "type": "event"
    },
    {
      "anonymous": false,
      "inputs": [
        {
          "indexed": true,
          "name": "signer",
          "type": "address"
        },
        {
          "indexed": false,
          "name": "petitionId",
          "type": "uint256"
        },
        {
          "indexed": false,
          "name": "totalSigns",
          "type": "uint256"
        }
      ],
      "name": "LogPetitionSigned",
      "type": "event"
    },
    {
      "anonymous": false,
      "inputs": [
        {
          "indexed": false,
          "name": "petitionId",
          "type": "uint256"
        }
      ],
      "name": "LogPetitionClosed",
      "type": "event"
    },
    {
      "anonymous": false,
      "inputs": [
        {
          "indexed": false,
          "name": "account",
          "type": "address"
        }
      ],
      "name": "Paused",
      "type": "event"
    },
    {
      "anonymous": false,
      "inputs": [
        {
          "indexed": false,
          "name": "account",
          "type": "address"
        }
      ],
      "name": "Unpaused",
      "type": "event"
    },
    {
      "anonymous": false,
      "inputs": [
        {
          "indexed": true,
          "name": "account",
          "type": "address"
        }
      ],
      "name": "PauserAdded",
      "type": "event"
    },
    {
      "anonymous": false,
      "inputs": [
        {
          "indexed": true,
          "name": "account",
          "type": "address"
        }
      ],
      "name": "PauserRemoved",
      "type": "event"
    },
    {
      "anonymous": false,
      "inputs": [
        {
          "indexed": true,
          "name": "previousOwner",
          "type": "address"
        },
        {
          "indexed": true,
          "name": "newOwner",
          "type": "address"
        }
      ],
      "name": "OwnershipTransferred",
      "type": "event"
    },
    {
      "constant": false,
      "inputs": [
        {
          "name": "_name",
          "type": "string"
        },
        {
          "name": "_ens",
          "type": "string"
        },
        {
          "name": "_ipfs_avatar",
          "type": "string"
        }
      ],
      "name": "createUser",
      "outputs": [
        {
          "name": "",
          "type": "bool"
        }
      ],
      "payable": false,
      "stateMutability": "nonpayable",
      "type": "function"
    },
    {
      "constant": true,
      "inputs": [
        {
          "name": "petitionId",
          "type": "uint256"
        }
      ],
      "name": "readPetition",
      "outputs": [
        {
          "name": "name",
          "type": "string"
        },
        {
          "name": "description",
          "type": "string"
        },
        {
          "name": "link",
          "type": "string"
        },
        {
          "name": "ipfs_banner",
          "type": "string"
        },
        {
          "name": "creator",
          "type": "address"
        },
        {
          "name": "targetSigns",
          "type": "uint256"
        },
        {
          "name": "totalSigns",
          "type": "uint256"
        },
        {
          "name": "isOpen",
          "type": "bool"
        }
      ],
      "payable": false,
      "stateMutability": "view",
      "type": "function"
    },
    {
      "constant": true,
      "inputs": [
        {
          "name": "userAddress",
          "type": "address"
        }
      ],
      "name": "readUser",
      "outputs": [
        {
          "name": "name",
          "type": "string"
        },
        {
          "name": "ens",
          "type": "string"
        },
        {
          "name": "ipfs_avatar",
          "type": "string"
        }
      ],
      "payable": false,
      "stateMutability": "view",
      "type": "function"
    },
    {
      "constant": false,
      "inputs": [
        {
          "name": "_name",
          "type": "string"
        },
        {
          "name": "_description",
          "type": "string"
        },
        {
          "name": "_link",
          "type": "string"
        },
        {
          "name": "_ipfs_banner",
          "type": "string"
        },
        {
          "name": "_targetSigns",
          "type": "uint256"
        }
      ],
      "name": "createPetition",
      "outputs": [
        {
          "name": "",
          "type": "uint256"
        }
      ],
      "payable": false,
      "stateMutability": "nonpayable",
      "type": "function"
    },
    {
      "constant": false,
      "inputs": [
        {
          "name": "petitionId",
          "type": "uint256"
        }
      ],
      "name": "signPetition",
      "outputs": [
        {
          "name": "",
          "type": "bool"
        }
      ],
      "payable": false,
      "stateMutability": "nonpayable",
      "type": "function"
    },
    {
      "constant": false,
      "inputs": [
        {
          "name": "petitionId",
          "type": "uint256"
        }
      ],
      "name": "closePetition",
      "outputs": [
        {
          "name": "",
          "type": "bool"
        }
      ],
      "payable": false,
      "stateMutability": "nonpayable",
      "type": "function"
    },
    {
      "constant": true,
      "inputs": [
        {
          "name": "start",
          "type": "uint256"
        },
        {
          "name": "end",
          "type": "uint256"
        },
        {
          "name": "petitionId",
          "type": "uint256"
        }
      ],
      "name": "getSignaturesFromRange",
      "outputs": [
        {
          "name": "",
          "type": "address[]"
        }
      ],
      "payable": false,
      "stateMutability": "view",
      "type": "function"
    },
    {
      "constant": true,
      "inputs": [
        {
          "name": "index",
          "type": "uint256"
        },
        {
          "name": "petitionId",
          "type": "uint256"
        }
      ],
      "name": "getSignaturesFromIndex",
      "outputs": [
        {
          "name": "name",
          "type": "string"
        },
        {
          "name": "ens",
          "type": "string"
        },
        {
          "name": "ipfs_avatar",
          "type": "string"
        },
        {
          "name": "userAddress",
          "type": "address"
        }
      ],
      "payable": false,
      "stateMutability": "view",
      "type": "function"
    }
  ],
  "bytecode": "0x6080604052336000806101000a81548173ffffffffffffffffffffffffffffffffffffffff021916908373ffffffffffffffffffffffffffffffffffffffff1602179055506000809054906101000a900473ffffffffffffffffffffffffffffffffffffffff1673ffffffffffffffffffffffffffffffffffffffff16600073ffffffffffffffffffffffffffffffffffffffff167f8be0079c531659141344cd1fd0a4f28419497f9722a3daafe3b4186f6b6457e060405160405180910390a3620000d133620000f260201b60201c565b6000600260006101000a81548160ff02191690831515021790555062000317565b6200010d8160016200015360201b6200394a1790919060201c565b8073ffffffffffffffffffffffffffffffffffffffff167f6719d08c1888103bea251a4ed56406bd0c3e69723c8a1686e017e7bbe159b6f860405160405180910390a250565b6200016582826200023760201b60201c565b15620001d9576040517f08c379a000000000000000000000000000000000000000000000000000000000815260040180806020018281038252601f8152602001807f526f6c65733a206163636f756e7420616c72656164792068617320726f6c650081525060200191505060405180910390fd5b60018260000160008373ffffffffffffffffffffffffffffffffffffffff1673ffffffffffffffffffffffffffffffffffffffff16815260200190815260200160002060006101000a81548160ff0219169083151502179055505050565b60008073ffffffffffffffffffffffffffffffffffffffff168273ffffffffffffffffffffffffffffffffffffffff161415620002c0576040517f08c379a000000000000000000000000000000000000000000000000000000000815260040180806020018281038252602281526020018062003fcc6022913960400191505060405180910390fd5b8260000160008373ffffffffffffffffffffffffffffffffffffffff1673ffffffffffffffffffffffffffffffffffffffff16815260200190815260200160002060009054906101000a900460ff16905092915050565b613ca580620003276000396000f3fe608060405234801561001057600080fd5b50600436106101375760003560e01c806382dc1ec4116100b8578063a87430ba1161007c578063a87430ba14610ef0578063cafe3a7e14611085578063dcad01801461111c578063e7bd92b914611162578063f2fde38b14611180578063f345a997146111c457610137565b806382dc1ec414610ca15780638456cb5914610ce55780638da5cb5b14610cef5780638f32d59b14610d395780638f34b66e14610d5b57610137565b806359ae069b116100ff57806359ae069b146108335780635c975abb14610a3457806362aee09214610a565780636ef8d66d14610c8d578063715018a614610c9757610137565b8063143acadf1461013c5780633ad50ded146102f85780633edd81d51461052f5780633f4ba83a146107cd57806346fbf68e146107d7575b600080fd5b6101726004803603604081101561015257600080fd5b81019080803590602001909291908035906020019092919050505061120a565b604051808060200180602001806020018573ffffffffffffffffffffffffffffffffffffffff1673ffffffffffffffffffffffffffffffffffffffff168152602001848103845288818151815260200191508051906020019080838360005b838110156101ec5780820151818401526020810190506101d1565b50505050905090810190601f1680156102195780820380516001836020036101000a031916815260200191505b50848103835287818151815260200191508051906020019080838360005b83811015610252578082015181840152602081019050610237565b50505050905090810190601f16801561027f5780820380516001836020036101000a031916815260200191505b50848103825286818151815260200191508051906020019080838360005b838110156102b857808201518184015260208101905061029d565b50505050905090810190601f1680156102e55780820380516001836020036101000a031916815260200191505b5097505050505050505060405180910390f35b6103246004803603602081101561030e57600080fd5b810190808035906020019092919050505061172b565b60405180806020018060200180602001806020018973ffffffffffffffffffffffffffffffffffffffff1673ffffffffffffffffffffffffffffffffffffffff1681526020018881526020018781526020018615151515815260200185810385528d818151815260200191508051906020019080838360005b838110156103b857808201518184015260208101905061039d565b50505050905090810190601f1680156103e55780820380516001836020036101000a031916815260200191505b5085810384528c818151815260200191508051906020019080838360005b8381101561041e578082015181840152602081019050610403565b50505050905090810190601f16801561044b5780820380516001836020036101000a031916815260200191505b5085810383528b818151815260200191508051906020019080838360005b83811015610484578082015181840152602081019050610469565b50505050905090810190601f1680156104b15780820380516001836020036101000a031916815260200191505b5085810382528a818151815260200191508051906020019080838360005b838110156104ea5780820151818401526020810190506104cf565b50505050905090810190601f1680156105175780820380516001836020036101000a031916815260200191505b509c5050505050505050505050505060405180910390f35b6107b7600480360360a081101561054557600080fd5b810190808035906020019064010000000081111561056257600080fd5b82018360208201111561057457600080fd5b8035906020019184600183028401116401000000008311171561059657600080fd5b91908080601f016020809104026020016040519081016040528093929190818152602001838380828437600081840152601f19601f820116905080830192505050505050509192919290803590602001906401000000008111156105f957600080fd5b82018360208201111561060b57600080fd5b8035906020019184600183028401116401000000008311171561062d57600080fd5b91908080601f016020809104026020016040519081016040528093929190818152602001838380828437600081840152601f19601f8201169050808301925050505050505091929192908035906020019064010000000081111561069057600080fd5b8201836020820111156106a257600080fd5b803590602001918460018302840111640100000000831117156106c457600080fd5b91908080601f016020809104026020016040519081016040528093929190818152602001838380828437600081840152601f19601f8201169050808301925050505050505091929192908035906020019064010000000081111561072757600080fd5b82018360208201111561073957600080fd5b8035906020019184600183028401116401000000008311171561075b57600080fd5b91908080601f016020809104026020016040519081016040528093929190818152602001838380828437600081840152601f19601f82011690508083019250505050505050919291929080359060200190929190505050611a00565b6040518082815260200191505060405180910390f35b6107d5611c26565b005b610819600480360360208110156107ed57600080fd5b81019080803573ffffffffffffffffffffffffffffffffffffffff169060200190929190505050611d86565b604051808215151515815260200191505060405180910390f35b610a1a6004803603606081101561084957600080fd5b810190808035906020019064010000000081111561086657600080fd5b82018360208201111561087857600080fd5b8035906020019184600183028401116401000000008311171561089a57600080fd5b91908080601f016020809104026020016040519081016040528093929190818152602001838380828437600081840152601f19601f820116905080830192505050505050509192919290803590602001906401000000008111156108fd57600080fd5b82018360208201111561090f57600080fd5b8035906020019184600183028401116401000000008311171561093157600080fd5b91908080601f016020809104026020016040519081016040528093929190818152602001838380828437600081840152601f19601f8201169050808301925050505050505091929192908035906020019064010000000081111561099457600080fd5b8201836020820111156109a657600080fd5b803590602001918460018302840111640100000000831117156109c857600080fd5b91908080601f016020809104026020016040519081016040528093929190818152602001838380828437600081840152601f19601f820116905080830192505050505050509192919290505050611da3565b604051808215151515815260200191505060405180910390f35b610a3c612059565b604051808215151515815260200191505060405180910390f35b610a8260048036036020811015610a6c57600080fd5b8101908080359060200190929190505050612070565b60405180806020018060200180602001806020018973ffffffffffffffffffffffffffffffffffffffff1673ffffffffffffffffffffffffffffffffffffffff1681526020018881526020018781526020018615151515815260200185810385528d818151815260200191508051906020019080838360005b83811015610b16578082015181840152602081019050610afb565b50505050905090810190601f168015610b435780820380516001836020036101000a031916815260200191505b5085810384528c818151815260200191508051906020019080838360005b83811015610b7c578082015181840152602081019050610b61565b50505050905090810190601f168015610ba95780820380516001836020036101000a031916815260200191505b5085810383528b818151815260200191508051906020019080838360005b83811015610be2578082015181840152602081019050610bc7565b50505050905090810190601f168015610c0f5780820380516001836020036101000a031916815260200191505b5085810382528a818151815260200191508051906020019080838360005b83811015610c48578082015181840152602081019050610c2d565b50505050905090810190601f168015610c755780820380516001836020036101000a031916815260200191505b509c5050505050505050505050505060405180910390f35b610c95612422565b005b610c9f61242d565b005b610ce360048036036020811015610cb757600080fd5b81019080803573ffffffffffffffffffffffffffffffffffffffff169060200190929190505050612566565b005b610ced6125d0565b005b610cf7612731565b604051808273ffffffffffffffffffffffffffffffffffffffff1673ffffffffffffffffffffffffffffffffffffffff16815260200191505060405180910390f35b610d4161275a565b604051808215151515815260200191505060405180910390f35b610d9d60048036036020811015610d7157600080fd5b81019080803573ffffffffffffffffffffffffffffffffffffffff1690602001909291905050506127b1565b60405180806020018060200180602001848103845287818151815260200191508051906020019080838360005b83811015610de5578082015181840152602081019050610dca565b50505050905090810190601f168015610e125780820380516001836020036101000a031916815260200191505b50848103835286818151815260200191508051906020019080838360005b83811015610e4b578082015181840152602081019050610e30565b50505050905090810190601f168015610e785780820380516001836020036101000a031916815260200191505b50848103825285818151815260200191508051906020019080838360005b83811015610eb1578082015181840152602081019050610e96565b50505050905090810190601f168015610ede5780820380516001836020036101000a031916815260200191505b50965050505050505060405180910390f35b610f3260048036036020811015610f0657600080fd5b81019080803573ffffffffffffffffffffffffffffffffffffffff1690602001909291905050506129de565b60405180806020018060200180602001848103845287818151815260200191508051906020019080838360005b83811015610f7a578082015181840152602081019050610f5f565b50505050905090810190601f168015610fa75780820380516001836020036101000a031916815260200191505b50848103835286818151815260200191508051906020019080838360005b83811015610fe0578082015181840152602081019050610fc5565b50505050905090810190601f16801561100d5780820380516001836020036101000a031916815260200191505b50848103825285818151815260200191508051906020019080838360005b8381101561104657808201518184015260208101905061102b565b50505050905090810190601f1680156110735780820380516001836020036101000a031916815260200191505b50965050505050505060405180910390f35b6110c56004803603606081101561109b57600080fd5b81019080803590602001909291908035906020019092919080359060200190929190505050612bd0565b6040518080602001828103825283818151815260200191508051906020019060200280838360005b838110156111085780820151818401526020810190506110ed565b505050509050019250505060405180910390f35b6111486004803603602081101561113257600080fd5b8101908080359060200190929190505050612f65565b604051808215151515815260200191505060405180910390f35b61116a613377565b6040518082815260200191505060405180910390f35b6111c26004803603602081101561119657600080fd5b81019080803573ffffffffffffffffffffffffffffffffffffffff16906020019092919050505061337d565b005b6111f0600480360360208110156111da57600080fd5b8101908080359060200190929190505050613403565b604051808215151515815260200191505060405180910390f35b6060806060600084600073ffffffffffffffffffffffffffffffffffffffff166004600083815260200190815260200160002060040160009054906101000a900473ffffffffffffffffffffffffffffffffffffffff1673ffffffffffffffffffffffffffffffffffffffff1614156112ce576040517f08c379a0000000000000000000000000000000000000000000000000000000008152600401808060200182810382526022815260200180613b6c6022913960400191505060405180910390fd5b6000600560003373ffffffffffffffffffffffffffffffffffffffff1673ffffffffffffffffffffffffffffffffffffffff1681526020019081526020016000206000018054600181600116156101000203166002900490501161139a576040517f08c379a000000000000000000000000000000000000000000000000000000000815260040180806020018281038252601b8152602001807f596f75206e65656420746f2072656769737465722066697273742e000000000081525060200191505060405180910390fd5b6004600087815260200190815260200160002060050154871115611426576040517f08c379a000000000000000000000000000000000000000000000000000000000815260040180806020018281038252601e8152602001807f52657175657374656420696e646578206973206f75746f66626f756e6420000081525060200191505060405180910390fd5b61142e613a25565b600060046000898152602001908152602001600020905060008160070160008b815260200190815260200160002060009054906101000a900473ffffffffffffffffffffffffffffffffffffffff1690508160080160008273ffffffffffffffffffffffffffffffffffffffff1673ffffffffffffffffffffffffffffffffffffffff16815260200190815260200160002060009054906101000a900460ff161561170657600560008273ffffffffffffffffffffffffffffffffffffffff1673ffffffffffffffffffffffffffffffffffffffff168152602001908152602001600020604051806060016040529081600082018054600181600116156101000203166002900480601f0160208091040260200160405190810160405280929190818152602001828054600181600116156101000203166002900480156115b65780601f1061158b576101008083540402835291602001916115b6565b820191906000526020600020905b81548152906001019060200180831161159957829003601f168201915b50505050508152602001600182018054600181600116156101000203166002900480601f0160208091040260200160405190810160405280929190818152602001828054600181600116156101000203166002900480156116585780601f1061162d57610100808354040283529160200191611658565b820191906000526020600020905b81548152906001019060200180831161163b57829003601f168201915b50505050508152602001600282018054600181600116156101000203166002900480601f0160208091040260200160405190810160405280929190818152602001828054600181600116156101000203166002900480156116fa5780601f106116cf576101008083540402835291602001916116fa565b820191906000526020600020905b8154815290600101906020018083116116dd57829003601f168201915b50505050508152505092505b8260000151975082602001519650826040015195508094505050505092959194509250565b6004602052806000526040600020600091509050806000018054600181600116156101000203166002900480601f0160208091040260200160405190810160405280929190818152602001828054600181600116156101000203166002900480156117d75780601f106117ac576101008083540402835291602001916117d7565b820191906000526020600020905b8154815290600101906020018083116117ba57829003601f168201915b505050505090806001018054600181600116156101000203166002900480601f0160208091040260200160405190810160405280929190818152602001828054600181600116156101000203166002900480156118755780601f1061184a57610100808354040283529160200191611875565b820191906000526020600020905b81548152906001019060200180831161185857829003601f168201915b505050505090806002018054600181600116156101000203166002900480601f0160208091040260200160405190810160405280929190818152602001828054600181600116156101000203166002900480156119135780601f106118e857610100808354040283529160200191611913565b820191906000526020600020905b8154815290600101906020018083116118f657829003601f168201915b505050505090806003018054600181600116156101000203166002900480601f0160208091040260200160405190810160405280929190818152602001828054600181600116156101000203166002900480156119b15780601f10611986576101008083540402835291602001916119b1565b820191906000526020600020905b81548152906001019060200180831161199457829003601f168201915b5050505050908060040160009054906101000a900473ffffffffffffffffffffffffffffffffffffffff16908060050154908060060154908060090160009054906101000a900460ff16905088565b600080600560003373ffffffffffffffffffffffffffffffffffffffff1673ffffffffffffffffffffffffffffffffffffffff16815260200190815260200160002060000180546001816001161561010002031660029004905011611acd576040517f08c379a000000000000000000000000000000000000000000000000000000000815260040180806020018281038252601b8152602001807f596f75206e65656420746f2072656769737465722066697273742e000000000081525060200191505060405180910390fd5b60006003549050600060046000838152602001908152602001600020905087816000019080519060200190611b03929190613a46565b5086816001019080519060200190611b1c929190613a46565b5085816002019080519060200190611b35929190613a46565b5084816003019080519060200190611b4e929190613a46565b50338160040160006101000a81548173ffffffffffffffffffffffffffffffffffffffff021916908373ffffffffffffffffffffffffffffffffffffffff16021790555083816006018190555060018160090160006101000a81548160ff0219169083151502179055506003600081548092919060010191905055503373ffffffffffffffffffffffffffffffffffffffff167f7a84b5e79038d82c11ccbbba3ecb756204a826bb384fa378acd97cca53427d07836040518082815260200191505060405180910390a2819250505095945050505050565b611c2f33611d86565b611c84576040517f08c379a0000000000000000000000000000000000000000000000000000000008152600401808060200182810382526030815260200180613b8e6030913960400191505060405180910390fd5b600260009054906101000a900460ff16611d06576040517f08c379a00000000000000000000000000000000000000000000000000000000081526004018080602001828103825260148152602001807f5061757361626c653a206e6f742070617573656400000000000000000000000081525060200191505060405180910390fd5b6000600260006101000a81548160ff0219169083151502179055507f5db9ee0a495bf2e6ff9c91a7834c1ba4fdd244a5e8aa4e537bd38aeae4b073aa33604051808273ffffffffffffffffffffffffffffffffffffffff1673ffffffffffffffffffffffffffffffffffffffff16815260200191505060405180910390a1565b6000611d9c8260016135b790919063ffffffff16565b9050919050565b600080600560003373ffffffffffffffffffffffffffffffffffffffff1673ffffffffffffffffffffffffffffffffffffffff16815260200190815260200160002060000180546001816001161561010002031660029004905014611e70576040517f08c379a000000000000000000000000000000000000000000000000000000000815260040180806020018281038252601a8152602001807f596f752061726520616c7265616479207265676973746572656400000000000081525060200191505060405180910390fd5b6000845111611ee7576040517f08c379a00000000000000000000000000000000000000000000000000000000081526004018080602001828103825260138152602001807f4e616d652063616e6e6f74206265206e756c6c0000000000000000000000000081525060200191505060405180910390fd5b604051806060016040528085815260200184815260200183815250600560003373ffffffffffffffffffffffffffffffffffffffff1673ffffffffffffffffffffffffffffffffffffffff1681526020019081526020016000206000820151816000019080519060200190611f5d929190613ac6565b506020820151816001019080519060200190611f7a929190613ac6565b506040820151816002019080519060200190611f97929190613ac6565b509050503373ffffffffffffffffffffffffffffffffffffffff167f85f024f9746b4d2a8a7c54f32f1eb2a1e3b223a9d92308b3186eb8a9ee955f9e856040518080602001828103825283818151815260200191508051906020019080838360005b83811015612014578082015181840152602081019050611ff9565b50505050905090810190601f1680156120415780820380516001836020036101000a031916815260200191505b509250505060405180910390a2600190509392505050565b6000600260009054906101000a900460ff16905090565b60608060608060008060008088600073ffffffffffffffffffffffffffffffffffffffff166004600083815260200190815260200160002060040160009054906101000a900473ffffffffffffffffffffffffffffffffffffffff1673ffffffffffffffffffffffffffffffffffffffff161415612139576040517f08c379a0000000000000000000000000000000000000000000000000000000008152600401808060200182810382526022815260200180613b6c6022913960400191505060405180910390fd5b6000600460008c81526020019081526020016000209050806000018054600181600116156101000203166002900480601f0160208091040260200160405190810160405280929190818152602001828054600181600116156101000203166002900480156121e85780601f106121bd576101008083540402835291602001916121e8565b820191906000526020600020905b8154815290600101906020018083116121cb57829003601f168201915b50505050509950806001018054600181600116156101000203166002900480601f0160208091040260200160405190810160405280929190818152602001828054600181600116156101000203166002900480156122875780601f1061225c57610100808354040283529160200191612287565b820191906000526020600020905b81548152906001019060200180831161226a57829003601f168201915b50505050509850806002018054600181600116156101000203166002900480601f0160208091040260200160405190810160405280929190818152602001828054600181600116156101000203166002900480156123265780601f106122fb57610100808354040283529160200191612326565b820191906000526020600020905b81548152906001019060200180831161230957829003601f168201915b50505050509750806003018054600181600116156101000203166002900480601f0160208091040260200160405190810160405280929190818152602001828054600181600116156101000203166002900480156123c55780601f1061239a576101008083540402835291602001916123c5565b820191906000526020600020905b8154815290600101906020018083116123a857829003601f168201915b505050505096508060040160009054906101000a900473ffffffffffffffffffffffffffffffffffffffff16955080600601549450806005015493508060090160009054906101000a900460ff1692505050919395975091939597565b61242b33613695565b565b61243561275a565b6124a7576040517f08c379a00000000000000000000000000000000000000000000000000000000081526004018080602001828103825260208152602001807f4f776e61626c653a2063616c6c6572206973206e6f7420746865206f776e657281525060200191505060405180910390fd5b600073ffffffffffffffffffffffffffffffffffffffff166000809054906101000a900473ffffffffffffffffffffffffffffffffffffffff1673ffffffffffffffffffffffffffffffffffffffff167f8be0079c531659141344cd1fd0a4f28419497f9722a3daafe3b4186f6b6457e060405160405180910390a360008060006101000a81548173ffffffffffffffffffffffffffffffffffffffff021916908373ffffffffffffffffffffffffffffffffffffffff160217905550565b61256f33611d86565b6125c4576040517f08c379a0000000000000000000000000000000000000000000000000000000008152600401808060200182810382526030815260200180613b8e6030913960400191505060405180910390fd5b6125cd816136ef565b50565b6125d933611d86565b61262e576040517f08c379a0000000000000000000000000000000000000000000000000000000008152600401808060200182810382526030815260200180613b8e6030913960400191505060405180910390fd5b600260009054906101000a900460ff16156126b1576040517f08c379a00000000000000000000000000000000000000000000000000000000081526004018080602001828103825260108152602001807f5061757361626c653a207061757365640000000000000000000000000000000081525060200191505060405180910390fd5b6001600260006101000a81548160ff0219169083151502179055507f62e78cea01bee320cd4e420270b5ea74000d11b0c9f74754ebdbfc544b05a25833604051808273ffffffffffffffffffffffffffffffffffffffff1673ffffffffffffffffffffffffffffffffffffffff16815260200191505060405180910390a1565b60008060009054906101000a900473ffffffffffffffffffffffffffffffffffffffff16905090565b60008060009054906101000a900473ffffffffffffffffffffffffffffffffffffffff1673ffffffffffffffffffffffffffffffffffffffff163373ffffffffffffffffffffffffffffffffffffffff1614905090565b60608060606000600560008673ffffffffffffffffffffffffffffffffffffffff1673ffffffffffffffffffffffffffffffffffffffff1681526020019081526020016000209050806000018054600181600116156101000203166002900480601f0160208091040260200160405190810160405280929190818152602001828054600181600116156101000203166002900480156128915780601f1061286657610100808354040283529160200191612891565b820191906000526020600020905b81548152906001019060200180831161287457829003601f168201915b50505050509350806001018054600181600116156101000203166002900480601f0160208091040260200160405190810160405280929190818152602001828054600181600116156101000203166002900480156129305780601f1061290557610100808354040283529160200191612930565b820191906000526020600020905b81548152906001019060200180831161291357829003601f168201915b50505050509250806002018054600181600116156101000203166002900480601f0160208091040260200160405190810160405280929190818152602001828054600181600116156101000203166002900480156129cf5780601f106129a4576101008083540402835291602001916129cf565b820191906000526020600020905b8154815290600101906020018083116129b257829003601f168201915b50505050509150509193909250565b6005602052806000526040600020600091509050806000018054600181600116156101000203166002900480601f016020809104026020016040519081016040528092919081815260200182805460018160011615610100020316600290048015612a8a5780601f10612a5f57610100808354040283529160200191612a8a565b820191906000526020600020905b815481529060010190602001808311612a6d57829003601f168201915b505050505090806001018054600181600116156101000203166002900480601f016020809104026020016040519081016040528092919081815260200182805460018160011615610100020316600290048015612b285780601f10612afd57610100808354040283529160200191612b28565b820191906000526020600020905b815481529060010190602001808311612b0b57829003601f168201915b505050505090806002018054600181600116156101000203166002900480601f016020809104026020016040519081016040528092919081815260200182805460018160011615610100020316600290048015612bc65780601f10612b9b57610100808354040283529160200191612bc6565b820191906000526020600020905b815481529060010190602001808311612ba957829003601f168201915b5050505050905083565b606081600073ffffffffffffffffffffffffffffffffffffffff166004600083815260200190815260200160002060040160009054906101000a900473ffffffffffffffffffffffffffffffffffffffff1673ffffffffffffffffffffffffffffffffffffffff161415612c8f576040517f08c379a0000000000000000000000000000000000000000000000000000000008152600401808060200182810382526022815260200180613b6c6022913960400191505060405180910390fd5b6000600560003373ffffffffffffffffffffffffffffffffffffffff1673ffffffffffffffffffffffffffffffffffffffff16815260200190815260200160002060000180546001816001161561010002031660029004905011612d5b576040517f08c379a000000000000000000000000000000000000000000000000000000000815260040180806020018281038252601b8152602001807f596f75206e65656420746f2072656769737465722066697273742e000000000081525060200191505060405180910390fd5b838510612db3576040517f08c379a0000000000000000000000000000000000000000000000000000000008152600401808060200182810382526027815260200180613c536027913960400191505060405180910390fd5b6004600084815260200190815260200160002060050154841115612e3f576040517f08c379a00000000000000000000000000000000000000000000000000000000081526004018080602001828103825260178152602001807f456e64206f662072616e676520697320746f6f2062696700000000000000000081525060200191505060405180910390fd5b60606000600460008681526020019081526020016000209050600080905060008890505b878111612f5657600083600701600083815260200190815260200160002060009054906101000a900473ffffffffffffffffffffffffffffffffffffffff1690508360080160008273ffffffffffffffffffffffffffffffffffffffff1673ffffffffffffffffffffffffffffffffffffffff16815260200190815260200160002060009054906101000a900460ff1615612f485780858481518110612f0557fe5b602002602001019073ffffffffffffffffffffffffffffffffffffffff16908173ffffffffffffffffffffffffffffffffffffffff168152505082806001019350505b508080600101915050612e63565b50829450505050509392505050565b600080600560003373ffffffffffffffffffffffffffffffffffffffff1673ffffffffffffffffffffffffffffffffffffffff16815260200190815260200160002060000180546001816001161561010002031660029004905011613032576040517f08c379a000000000000000000000000000000000000000000000000000000000815260040180806020018281038252601b8152602001807f596f75206e65656420746f2072656769737465722066697273742e000000000081525060200191505060405180910390fd5b81600073ffffffffffffffffffffffffffffffffffffffff166004600083815260200190815260200160002060040160009054906101000a900473ffffffffffffffffffffffffffffffffffffffff1673ffffffffffffffffffffffffffffffffffffffff1614156130ef576040517f08c379a0000000000000000000000000000000000000000000000000000000008152600401808060200182810382526022815260200180613b6c6022913960400191505060405180910390fd5b60006004600085815260200190815260200160002090508060080160003373ffffffffffffffffffffffffffffffffffffffff1673ffffffffffffffffffffffffffffffffffffffff16815260200190815260200160002060009054906101000a900460ff16156131c8576040517f08c379a00000000000000000000000000000000000000000000000000000000081526004018080602001828103825260208152602001807f596f7520616c7265616479207369676e656420746865207065746974696f6e2181525060200191505060405180910390fd5b8060090160009054906101000a900460ff1661324c576040517f08c379a00000000000000000000000000000000000000000000000000000000081526004018080602001828103825260188152602001807f546865207065746974696f6e2077617320636c6f7365642e000000000000000081525060200191505060405180910390fd5b338160070160008360050154815260200190815260200160002060006101000a81548173ffffffffffffffffffffffffffffffffffffffff021916908373ffffffffffffffffffffffffffffffffffffffff16021790555060018160080160003373ffffffffffffffffffffffffffffffffffffffff1673ffffffffffffffffffffffffffffffffffffffff16815260200190815260200160002060006101000a81548160ff02191690831515021790555080600501600081548092919060010191905055503373ffffffffffffffffffffffffffffffffffffffff167feb0577862f68791e5e65dabf4d79a642e4589666a011134b17d074d1ef18cd23858360050154604051808381526020018281526020019250505060405180910390a2600192505050919050565b60035481565b61338561275a565b6133f7576040517f08c379a00000000000000000000000000000000000000000000000000000000081526004018080602001828103825260208152602001807f4f776e61626c653a2063616c6c6572206973206e6f7420746865206f776e657281525060200191505060405180910390fd5b61340081613749565b50565b600081600073ffffffffffffffffffffffffffffffffffffffff166004600083815260200190815260200160002060040160009054906101000a900473ffffffffffffffffffffffffffffffffffffffff1673ffffffffffffffffffffffffffffffffffffffff1614156134c2576040517f08c379a0000000000000000000000000000000000000000000000000000000008152600401808060200182810382526022815260200180613b6c6022913960400191505060405180910390fd5b823373ffffffffffffffffffffffffffffffffffffffff166004600083815260200190815260200160002060040160009054906101000a900473ffffffffffffffffffffffffffffffffffffffff1673ffffffffffffffffffffffffffffffffffffffff161461357d576040517f08c379a000000000000000000000000000000000000000000000000000000000815260040180806020018281038252602c815260200180613c27602c913960400191505060405180910390fd5b60006004600086815260200190815260200160002060090160006101000a81548160ff021916908315150217905550600192505050919050565b60008073ffffffffffffffffffffffffffffffffffffffff168273ffffffffffffffffffffffffffffffffffffffff16141561363e576040517f08c379a0000000000000000000000000000000000000000000000000000000008152600401808060200182810382526022815260200180613c056022913960400191505060405180910390fd5b8260000160008373ffffffffffffffffffffffffffffffffffffffff1673ffffffffffffffffffffffffffffffffffffffff16815260200190815260200160002060009054906101000a900460ff16905092915050565b6136a981600161388d90919063ffffffff16565b8073ffffffffffffffffffffffffffffffffffffffff167fcd265ebaf09df2871cc7bd4133404a235ba12eff2041bb89d9c714a2621c7c7e60405160405180910390a250565b61370381600161394a90919063ffffffff16565b8073ffffffffffffffffffffffffffffffffffffffff167f6719d08c1888103bea251a4ed56406bd0c3e69723c8a1686e017e7bbe159b6f860405160405180910390a250565b600073ffffffffffffffffffffffffffffffffffffffff168173ffffffffffffffffffffffffffffffffffffffff1614156137cf576040517f08c379a0000000000000000000000000000000000000000000000000000000008152600401808060200182810382526026815260200180613bbe6026913960400191505060405180910390fd5b8073ffffffffffffffffffffffffffffffffffffffff166000809054906101000a900473ffffffffffffffffffffffffffffffffffffffff1673ffffffffffffffffffffffffffffffffffffffff167f8be0079c531659141344cd1fd0a4f28419497f9722a3daafe3b4186f6b6457e060405160405180910390a3806000806101000a81548173ffffffffffffffffffffffffffffffffffffffff021916908373ffffffffffffffffffffffffffffffffffffffff16021790555050565b61389782826135b7565b6138ec576040517f08c379a0000000000000000000000000000000000000000000000000000000008152600401808060200182810382526021815260200180613be46021913960400191505060405180910390fd5b60008260000160008373ffffffffffffffffffffffffffffffffffffffff1673ffffffffffffffffffffffffffffffffffffffff16815260200190815260200160002060006101000a81548160ff0219169083151502179055505050565b61395482826135b7565b156139c7576040517f08c379a000000000000000000000000000000000000000000000000000000000815260040180806020018281038252601f8152602001807f526f6c65733a206163636f756e7420616c72656164792068617320726f6c650081525060200191505060405180910390fd5b60018260000160008373ffffffffffffffffffffffffffffffffffffffff1673ffffffffffffffffffffffffffffffffffffffff16815260200190815260200160002060006101000a81548160ff0219169083151502179055505050565b60405180606001604052806060815260200160608152602001606081525090565b828054600181600116156101000203166002900490600052602060002090601f016020900481019282601f10613a8757805160ff1916838001178555613ab5565b82800160010185558215613ab5579182015b82811115613ab4578251825591602001919060010190613a99565b5b509050613ac29190613b46565b5090565b828054600181600116156101000203166002900490600052602060002090601f016020900481019282601f10613b0757805160ff1916838001178555613b35565b82800160010185558215613b35579182015b82811115613b34578251825591602001919060010190613b19565b5b509050613b429190613b46565b5090565b613b6891905b80821115613b64576000816000905550600101613b4c565b5090565b9056fe526571756573746564207065746974696f6e20646f6573206e6f7420657869737421506175736572526f6c653a2063616c6c657220646f6573206e6f742068617665207468652050617573657220726f6c654f776e61626c653a206e6577206f776e657220697320746865207a65726f2061646472657373526f6c65733a206163636f756e7420646f6573206e6f74206861766520726f6c65526f6c65733a206163636f756e7420697320746865207a65726f20616464726573734f6e6c79207468652063726561746f72206f6620746865207065746974696f6e2063616e20646f20746869735374617274206f662072616e6765206d75737420626520736d616c6c6572207468616e20656e64a165627a7a72305820f1adb6c02f7b9e64600c5df4e2ac781f9def3dabbc917c3e0ad81446ff3b546a0029526f6c65733a206163636f756e7420697320746865207a65726f2061646472657373",
  "source": "pragma solidity ^0.5.0;\n\nimport 'openzeppelin-solidity/contracts/ownership/Ownable.sol';\nimport 'openzeppelin-solidity/contracts/lifecycle/Pausable.sol';\n\ncontract PetitionManager is Ownable, Pausable {\n\n    /*\n        Create a variable to keep track of the event ID numbers.\n    */\n    uint public idGenerator;\n\n    /*\n        Struct containing details about a petitions and its signers.\n    */\n    struct Petition {\n        string name;\n        string description;\n        string link;\n        string ipfs_banner;\n        address creator;\n        uint totalSigns;\n        uint targetSigns;\n        mapping(uint => address) signersId;\n        mapping(address => bool) signers;\n        bool isOpen;\n    }\n\n    struct User {\n        string name;\n        string ens;\n        string ipfs_avatar;\n    }\n\n    mapping (uint => Petition) public petitions;\n    mapping (address => User) public users;\n\n    event LogUserCreated(address indexed userAddress, string name);\n    event LogPetitionCreated(address indexed creator, uint petitionId);\n    event LogPetitionSigned(address indexed signer, uint petitionId, uint totalSigns);\n    event LogPetitionClosed(uint petitionId);\n\n    modifier notUser(){\n        //Best way to check if a string is uninitialized\n        require(bytes(users[msg.sender].name).length == 0, \"You are already registered\");\n        _;\n    }\n\n    modifier isUser(){\n        //Best way to check if a string is uninitialized\n        require(bytes(users[msg.sender].name).length > 0, \"You need to register first.\");\n        _;\n    }\n\n    modifier isCreator(uint _petitionId){\n        require(petitions[_petitionId].creator == msg.sender, \"Only the creator of the petition can do this\");\n        _;\n    }\n\n    modifier petitionExists(uint _petitionId){\n        require(petitions[_petitionId].creator != address(0), \"Requested petition does not exist!\");\n        _;\n    }\n\n    function createUser(string memory _name, string memory _ens, string memory _ipfs_avatar)\n    public notUser returns(bool) {\n        require(bytes(_name).length > 0, \"Name cannot be null\");\n        users[msg.sender] = User({name: _name, ens: _ens, ipfs_avatar:_ipfs_avatar});\n        emit LogUserCreated(msg.sender,_name);\n        return true;\n    }\n\n    function readPetition(uint petitionId)\n    public view petitionExists(petitionId) returns(string memory name, string memory description, string memory link,\n     string memory ipfs_banner, address creator, uint  targetSigns, uint totalSigns, bool isOpen) {\n        Petition storage p = petitions[petitionId];\n        name = p.name;\n        description = p.description;\n        link = p.link;\n        ipfs_banner = p.ipfs_banner;\n        creator = p.creator;\n        targetSigns = p.targetSigns;\n        totalSigns = p.totalSigns;\n        isOpen = p.isOpen;\n     }\n\n    function readUser(address userAddress)\n    public view returns(string memory name, string memory ens, string memory ipfs_avatar){\n        User storage u = users[userAddress];\n        name = u.name;\n        ens = u.ens;\n        ipfs_avatar = u.ipfs_avatar;\n    }\n\n    function createPetition(string memory _name, string memory _description, string memory _link,\n     string memory _ipfs_banner, uint  _targetSigns )\n    public isUser returns(uint)\n    {\n        uint petitionId = idGenerator;\n        Petition storage p = petitions[petitionId];\n        p.name = _name;\n        p.description = _description;\n        p.link = _link;\n        p.ipfs_banner = _ipfs_banner;\n        p.creator = msg.sender;\n        p.targetSigns = _targetSigns;\n        p.isOpen = true;\n        idGenerator++;\n        emit LogPetitionCreated(msg.sender,petitionId);\n        return petitionId;\n    }\n\n    function signPetition(uint petitionId)\n    public isUser petitionExists(petitionId) returns(bool)\n    {\n        Petition storage p = petitions[petitionId];\n        require(!p.signers[msg.sender], \"You already signed the petition!\");\n        require(p.isOpen, \"The petition was closed.\");\n        p.signersId[p.totalSigns] = msg.sender;\n        p.signers[msg.sender] = true;\n        p.totalSigns++;\n        //Do something if targetSigns are reached?!\n        emit LogPetitionSigned(msg.sender,petitionId,p.totalSigns);\n        return true;\n    }\n\n    function closePetition(uint petitionId)\n    public petitionExists(petitionId) isCreator(petitionId) returns(bool)\n    {\n        petitions[petitionId].isOpen = false;\n        return true;\n    }\n\n    function getSignaturesFromRange(uint start, uint end, uint petitionId)\n    public view petitionExists(petitionId) isUser returns(address[] memory){\n        require(start < end, \"Start of range must be smaller than end\");\n        require(end<=petitions[petitionId].totalSigns,\"End of range is too big\");\n        address[] memory signArray;\n        Petition storage p = petitions[petitionId];\n        uint j = 0;\n        for(uint i = start; i<=end;i++){\n            address signer = p.signersId[i];\n            if(p.signers[signer]){\n                signArray[j] = signer;\n                j++;\n            }\n        }\n        return signArray;\n    }\n\n    function getSignaturesFromIndex(uint index, uint petitionId)\n    public view petitionExists(petitionId) isUser returns(string memory name, string memory ens, string memory ipfs_avatar, address  userAddress){\n        require(index<=petitions[petitionId].totalSigns,\"Requested index is outofbound \");\n        User memory sign;\n        Petition storage p = petitions[petitionId];\n        address signer = p.signersId[index];\n        if(p.signers[signer]){\n            sign = users[signer];\n        }\n        name = sign.name;\n        ens = sign.ens;\n        ipfs_avatar = sign.ipfs_avatar;\n        userAddress = signer;\n    }\n\n\n}",
  "sourcePath": "/home/franz/consensys/ConsensysBootcamp-FinalProject/contracts/PetitionManager.sol",
  "compiler": {
    "name": "solc",
    "version": "0.5.8+commit.23d335f2.Emscripten.clang"
  },
  "schemaVersion": "3.0.10",
  "updatedAt": "2019-08-01T04:57:55.587Z",
  "devdoc": {
    "methods": {
      "isOwner()": {
        "details": "Returns true if the caller is the current owner."
      },
      "owner()": {
        "details": "Returns the address of the current owner."
      },
      "pause()": {
        "details": "Called by a pauser to pause, triggers stopped state."
      },
      "paused()": {
        "details": "Returns true if the contract is paused, and false otherwise."
      },
      "renounceOwnership()": {
        "details": "Leaves the contract without owner. It will not be possible to call `onlyOwner` functions anymore. Can only be called by the current owner.     * > Note: Renouncing ownership will leave the contract without an owner, thereby removing any functionality that is only available to the owner."
      },
      "transferOwnership(address)": {
        "details": "Transfers ownership of the contract to a new account (`newOwner`). Can only be called by the current owner."
      },
      "unpause()": {
        "details": "Called by a pauser to unpause, returns to normal state."
      }
    }
  },
  "userdoc": {
    "methods": {}
  }
}